:100000000C9472000C949E090C9493000C94930031
:100010000C9493000C9493000C9493000C94930014
:100020000C9493000C9493000C9493000C94930004
:100030000C9493000C9493000C9493000C949300F4
:100040000C9493000C9493000C9493000C949300E4
:100050000C9493000C9493000C9493000C949300D4
:100060000C9493000C9493000C9493000C949300C4
:100070000C9493000C9493000C9493000C949300B4
:100080000C9493000C9493000C9493000C94540AD9
:100090000C9493000C9493000C9493000C94930094
:1000A0000C9493000C9493000C9493000C94930084
:1000B0000C9493000C94420A0C94760B0C949300CD
:1000C0000C9493000C9493000C94620B0C9493008A
:1000D0000C9493000C9493000C9493000C94930054
:1000E0000C94930011241FBECFEFD1E2DEBFCDBF31
:1000F00000E00CBF12E0A0E0B2E0E4E5F8E100E0CF
:100100000BBF02C007900D92A432B107D9F722E0CD
:10011000A4E2B2E001C01D92A835B207E1F70E9447
:10012000F7070C94280C0C9400000F9A0B9A0D9A68
:1001300013981598089528E030E008C01798139A8E
:100140001398215031092115310539F0982F9170FC
:100150008595992399F3179AF2CF089520E130E01D
:10016000A90102C0440F551F8A95E2F7CA01809584
:100170000E949B000895CF93DF93D62FC72F0E9434
:100180009B008D2F9C2F0E94AE00159A1598DF9131
:10019000CF9108950F931F93CF93DF93C82FD92F3B
:1001A00000E010E09E01ADECBCEC0E94050C9C014F
:1001B000369527953695279536952795C901880F49
:1001C000991F880F991F820F931F880F991FFE0197
:1001D000E81BF90BEE0FFF1FEC5FFD4FB8018081AC
:1001E0000E94BB009E01ADECBCEC0E94050CEC0132
:1001F000D695C795D695C795D695C7958FE99FE0B3
:100200000197F1F700C000000F5F1F4F0430110588
:1002100049F6DF91CF911F910F910895CF93DF930E
:1002200081B18A7A81B982B1856582B980913E02B5
:1002300090913F028230910509F450C30CF04FC0F9
:10024000009709F485C0019709F08CC580912602BA
:10025000909127028130910509F42EC282309105D8
:1002600009F47AC2892B09F4B2C10499EAC28091D7
:10027000340290913502892B09F0E3C28FE39CE9A7
:100280000197F1F700C000000499DBC280913402AD
:1002900090913502892B09F0D4C281E090E09093CF
:1002A000350280933402049BD5C28FE39CE9019709
:1002B000F1F700C00000049BCDC280913402909100
:1002C0003502019709F0C6C210923502109234022D
:1002D00082E090E090933F0280933E02BBC203977E
:1002E00009F040C50699FEC480912A0290912B0224
:1002F000892B09F0F7C48FE39CE90197F1F700C05F
:1003000000000699EFC480912A0290912B02892B5C
:1003100009F0E8C481E090E090932B0280932A02D8
:10032000069BE9C48FE39CE90197F1F700C0000048
:10033000069BE1C480912A0290912B02019709F05B
:10034000DAC410922B0210922A020E946F0AD3C4C0
:100350008091280290912902CAE0D0E0BE010E945B
:10036000F10BFC01EE0FFF1FEC5FFD4F60E070E052
:1003700080810E94BB008FE99FE00197F1F700C0E8
:1003800000008091280290912902BE010E94F10B89
:10039000CB01BE010E94F10BFC01EE0FFF1FEC5FD1
:1003A000FD4F61E070E080810E94BB008FE99FE01B
:1003B0000197F1F700C00000809128029091290276
:1003C00064E670E00E94F10BCB01BE010E94F10BCC
:1003D000FC01EE0FFF1FEC5FFD4F62E070E08081DB
:1003E0000E94BB008FE99FE00197F1F700C0000079
:1003F00063E070E08CEF0E94BB008FE99FE0019703
:10040000F1F700C0000063E570E080E00E94BB00EF
:100410008FE99FE00197F1F700C00000029938C012
:1004200080913C0290913D02892B91F58FE39CE9EC
:100430000197F1F700C0000002992AC080913C02A8
:1004400090913D02892B21F581E090E090933D024F
:1004500080933C02029B24C08FE39CE90197F1F753
:1004600000C00000029B1CC080913C0290913D02A4
:100470000197B1F4809128029091290201969093FE
:1004800029028093280210923D0210923C0208C07B
:10049000029B06C080913C0290913D020197E1F2DF
:1004A000049935C080913A0290913B02892B79F5ED
:1004B0008FE39CE90197F1F700C00000049927C081
:1004C00080913A0290913B02892B09F581E090E0FE
:1004D00090933B0280933A02049B21C08FE39CE9F6
:1004E0000197F1F700C00000049B19C080913A0207
:1004F00090913B02019799F410923B0210923A02BC
:1005000081E090E090933F0280933E0208C0049BFC
:1005100006C080913A0290913B020197F9F200994E
:1005200021C08091380290913902892BD9F48FE350
:100530009CE90197F1F700C00000009913C0809179
:10054000380290913902892B69F481E090E0909310
:100550003902809338021092290210922802009BDF
:1005600001C409C0009BFEC38091380290913902FA
:10057000019709F0F7C38FE39CE90197F1F700C0F9
:100580000000009BEFC380913802909139020197DF
:1005900009F0E8C363E070E08CEF0E94BB008FE9D4
:1005A0009FE00197F1F700C000006AE070E080E092
:1005B0000E94BB008FE99FE00197F1F700C00000A7
:1005C00081E090E09093390280933802CBC3029986
:1005D00033C08091360290913702892B69F58FE301
:1005E0009CE90197F1F700C00000029925C08091B5
:1005F000360290913702892BF9F481E090E09093D4
:100600002702809326029093370280933602029B42
:100610001BC08FE39CE90197F1F700C00000029B2B
:1006200013C08091360290913702019769F41092BD
:1006300037021092360208C0029B06C08091360233
:1006400090913702019729F363E070E080E60E9401
:10065000BB008FE99FE00197F1F700C0000062E066
:1006600070E083E00E94BB008FE99FE00197F1F703
:1006700000C0000061E070E08CE10E94BB008FE9E7
:100680009FE00197F1F700C0000060E070E08CE8A7
:100690000E94BB008FE99FE00197F1F700C00000C6
:1006A00063E570E080E00E94BB008FE99FE0019766
:1006B000F1F700C00000D9CD029957C380913602EE
:1006C00090913702892B09F050C38FE39CE9019781
:1006D000F1F700C00000029914C080913602909199
:1006E0003702892B71F482E090E090932702809387
:1006F000260281E090E0909337028093360280B129
:1007000036C3029B34C38091260290912702019741
:1007100009F02DC38091360290913702019709F0BC
:1007200026C38FE39CE90197F1F700C00000029B0C
:100730001EC38091260290912702019709F017C3EA
:100740008091360290913702019709F010C3109200
:100750003702109236020BC3029933C080913602E1
:1007600090913702892B69F58FE39CE90197F1F7A6
:1007700000C00000029925C0809136029091370296
:10078000892BF9F4109227021092260281E090E062
:100790009093370280933602029B1BC08FE39CE943
:1007A0000197F1F700C00000029B13C08091360250
:1007B00090913702019769F4109237021092360235
:1007C00008C0029B06C080913602909137020197C3
:1007D00029F363E070E080E60E94BB008FE99FE0B0
:1007E0000197F1F700C0000062E070E082E00E9433
:1007F000BB008FE99FE00197F1F700C0000061E0C6
:1008000070E08CE10E94BB008FE99FE00197F1F757
:1008100000C0000060E070E08DE80E94BB008FE93E
:100820009FE00197F1F700C0000063E570E080E011
:100830000E94BB008FE99FE00197F1F700C0000024
:1008400014CD049B07C0809134029091350201972A
:1008500009F42BCD009921C080913202909133028E
:10086000892BD9F48FE39CE90197F1F700C00000D0
:10087000009913C08091320290913302892B69F460
:10088000109227021092260281E090E090933302AA
:1008900080933202009B66C209C0009B63C28091B4
:1008A000320290913302019709F05CC28FE39CE918
:1008B0000197F1F700C00000009B54C28091320202
:1008C00090913302019709F04DC210923F021092AD
:1008D0003E02109233021092320244C280912402EE
:1008E000909125028130910509F4B5C082309105BF
:1008F00009F434C1892BD1F10499A5C180912E024C
:1009000090912F02892B09F09EC18FE39CE90197FA
:10091000F1F700C00000049996C180912E029091D9
:100920002F02892B09F08FC181E090E090932F0274
:1009300080932E02049B90C18FE39CE90197F1F70D
:1009400000C00000049B88C180912E0290912F026C
:10095000019709F081C110922F0210922E0283E0BC
:1009600090E090933F0280933E0276C1029933C09B
:100970008091300290913102892B69F58FE39CE9D7
:100980000197F1F700C00000029925C08091300264
:1009900090913102892BF9F481E090E09093250247
:1009A000809324029093310280933002029B1BC0FB
:1009B0008FE39CE90197F1F700C00000029B13C090
:1009C0008091300290913102019769F410923102C6
:1009D0001092300208C0029B06C0809130029091B4
:1009E0003102019729F363E070E08AED0E94BB00B9
:1009F0008FE99FE00197F1F700C0000062E070E02E
:100A000083E00E94BB008FE99FE00197F1F700C0EF
:100A1000000061E070E08CE10E94BB008FE99FE084
:100A20000197F1F700C0000060E070E08CE80E94E0
:100A3000BB008FE99FE00197F1F700C0000063E57C
:100A400070E080E00E94BB008FE99FE00197F1F722
:100A500000C0000051CF029920C0809130029091D7
:100A60003102892BD1F48FE39CE90197F1F700C0A3
:100A70000000029912C08091300290913102892BBE
:100A800061F482E090E0909325028093240281E05B
:100A900090E09093310280933002029B06C08091D7
:100AA0002602909127020197C1F163E070E08AED80
:100AB0000E94BB008FE99FE00197F1F700C00000A2
:100AC00062E070E082E00E94BB008FE99FE0019746
:100AD000F1F700C0000061E070E08DE10E94BB0012
:100AE0008FE99FE00197F1F700C0000060E070E03F
:100AF0008CE80E94BB008FE99FE00197F1F700C0EE
:100B0000000063E570E080E00E94BB008FE99FE099
:100B10000197F1F700C00000EFCE80913002909174
:100B20003102019711F68FE39CE90197F1F700C0BC
:100B30000000029BBACF8091260290912702019774
:100B400009F0B3CF8091300290913102019709F002
:100B5000ACCF1092310210923002A7CF029933C06D
:100B60008091300290913102892B69F58FE39CE9E5
:100B70000197F1F700C00000029925C08091300272
:100B800090913102892BF9F41092250210922402DF
:100B900081E090E09093310280933002029B1BC071
:100BA0008FE39CE90197F1F700C00000029B13C09E
:100BB0008091300290913102019769F410923102D4
:100BC0001092300208C0029B06C0809130029091C2
:100BD0003102019729F363E070E08AED0E94BB00C7
:100BE0008FE99FE00197F1F700C0000062E070E03C
:100BF00082E00E94BB008FE99FE00197F1F700C0FF
:100C0000000061E070E08CE10E94BB008FE99FE092
:100C10000197F1F700C0000060E070E08DE80E94ED
:100C2000BB008FE99FE00197F1F700C0000063E58A
:100C300070E080E00E94BB008FE99FE00197F1F730
:100C400000C0000059CE049B07C080912E029091F5
:100C50002F02019709F470CE009921C080912C02D7
:100C600090912D02892BD9F48FE39CE90197F1F73C
:100C700000C00000009913C080912C0290912D02B9
:100C8000892B69F4109225021092240281E090E0F1
:100C900090932D0280932C02009B64C009C0009B9E
:100CA00061C080912C0290912D02019709F05AC0E9
:100CB0008FE39CE90197F1F700C00000009B52C050
:100CC00080912C0290912D02019709F04BC081E098
:100CD00090E090933F0280933E0210922D0210927A
:100CE0002C0240C0069B07C080912A0290912B02E3
:100CF000019709F417CB63E070E08EE80E94BB0017
:100D00008FE99FE00197F1F700C0000062E070E01A
:100D10008CE80E94BB008FE99FE00197F1F700C0CB
:100D2000000061E070E08EE90E94BB008FE99FE067
:100D30000197F1F700C0000060E070E08AE70E94D0
:100D4000BB008FE99FE00197F1F700C0000063E569
:100D500070E080E00E94BB008FE99FE00197F1F70F
:100D600000C00000DF91CF9108950299D3CC63E0D9
:100D700070E080E60E94BB008FE99FE00197F1F7E9
:100D800000C0000062E070E082E00E94BB008FE9DA
:100D90009FE00197F1F700C0000061E070E08DE195
:100DA0000E94BB008FE99FE00197F1F700C00000AF
:100DB00060E070E08CE80E94BB008FE99FE0019743
:100DC000F1F700C0000063E570E080E00E94BB0026
:100DD0008FE99FE00197F1F700C0000046CACF936A
:100DE000DF938091020290910302209100023091E2
:100DF0000102820F931FCAE0D0E0BE010E94F10BF6
:100E0000FC01EE0FFF1FEC5FFD4F60E070E08081A2
:100E10000E94BB008FE99FE00197F1F700C000003E
:100E20008091020290910302209100023091010210
:100E3000820F931FBE010E94F10BCB01BE010E94E5
:100E4000F10BFC01EE0FFF1FEC5FFD4F61E070E066
:100E500080810E94BB008FE99FE00197F1F700C0FD
:100E600000008091020290910302209100023091D3
:100E70000102820F931F64E670E00E94F10BCB0128
:100E8000BE010E94F10BFC01EE0FFF1FEC5FFD4F56
:100E900062E070E080810E94BB008FE99FE00197D3
:100EA000F1F700C0000080910202909103022091AE
:100EB000000230910102820F931F68EE73E00E94DE
:100EC000F10BCB01BE010E94F10BFC01EE0FFF1FE5
:100ED000EC5FFD4F63E070E080810E94BB008FE912
:100EE0009FE00197F1F700C0000063E570E080E04B
:100EF0000E94BB008FE99FE00197F1F700C000005E
:100F0000DF91CF9108953F983D9A459A3E98089574
:100F1000379911C02FEF89EF90E021508040904029
:100F2000E1F700C00000379910C010924302109200
:100F30004202459808952FEF89EF90E021508040BC
:100F40009040E1F700C00000379B08958091420275
:100F500090914302892B49F48091020290910302FF
:100F60000196909303028093020281E090E09093B7
:100F7000430280934202459AE8CF369911C02FEF81
:100F800089EF90E0215080409040E1F700C00000E0
:100F9000369927C010924102109240024598089558
:100FA0002FEF89EF90E0215080409040E1F700C0A2
:100FB0000000369B16C08091400290914102892B1F
:100FC00049F48091000290910102019690930102F0
:100FD0008093000281E090E0909341028093400270
:100FE000459A08950E9488070E94BD0708950E94AF
:100FF00095000E940E01FDCF809152029091530204
:101000002091540230915502820F931F0D969093B8
:1010100045028093440208958EE794E00E940F0AEF
:101020008EE794E00E94080A089580E090E00E9414
:101030000F0A80E090E00E94080A0895262F372FBB
:10104000281739070CF40197821793070CF40196BF
:101050000895CF92DF92EF92FF920F931F93CF9359
:10106000DF93C0E0D0E00F2EF3E0CF2EF02DD12C97
:1010700002E010E0EE24E394F12C11C0C130D10560
:10108000B1F5809154029091550245970CF05EC0E5
:10109000809152029091530245970CF057C00E94E4
:1010A000EF062091540230915502809152029091A6
:1010B00053022817390711F3209154023091550239
:1010C00080915202909153022817390724F52297F4
:1010D000C9F42091520230915302809154029091B0
:1010E0005502281739073CF1C02FD12FCACF8EE700
:1010F00094E00E940F0A8EE794E00E94080ACE2D29
:10110000DF2DBFCF81E796E00E940F0A8FE794E0C2
:101110000E94080ADECF2091520230915302809142
:10112000540290915502281739070CF0AACFC3300A
:10113000D10509F4A6CF81E796E00E94080A8FE75F
:1011400094E00E940F0ACC2DDD2D9BCF0E94150844
:10115000DF91CF911F910F91FF90EF90DF90CF9093
:1011600008950E94660A80914A0290914B02843051
:10117000904148F40E940C0880914A0290914B02E1
:1011800084309041B8F30E94660A0E94160A80914A
:101190004A0290914B028839984048F40E940C080A
:1011A00080914A0290914B0288399840B8F30E948E
:1011B000160A0E94660A80914A0290914B028C376F
:1011C000954148F40E940C0880914A0290914B028C
:1011D0008C379541B8F30E94160A0E94660A8091E6
:1011E0004A0290914B028839984048F40E940C08BA
:1011F00080914A0290914B0288399840B8F30E943E
:10120000160A0E94660A0E940C0880915202909170
:101210005302409744F00E940C0880915202909132
:1012200053024097C4F70E94150808950E94660A69
:1012300080914A0290914B028430904148F40E9480
:101240000C0880914A0290914B0284309041B8F38F
:101250000E94660A0E94280A80914A0290914B02DD
:101260008636984048F40E940C0880914A0290917A
:101270004B0286369840B8F30E94280A0E94660AFC
:1012800080914A0290914B028C37954148F40E941C
:101290000C0880914A0290914B028C379541B8F32B
:1012A0000E94280A0E94660A80914A0290914B028D
:1012B0008636984048F40E940C0880914A0290912A
:1012C0004B0286369840B8F30E94280A0E94660AAC
:1012D0000E940C0880915202909153024A9744F068
:1012E0000E940C0880915202909153024A97C4F7D1
:1012F0000E94150808955098E89AE9E6F0E0808188
:10130000816080837894089580914602909147028D
:10131000892B79F481E090E0909347028093460214
:101320000E94150880914602909147020197C1F3EF
:101330000895109247021092460208951F920F924C
:101340000FB60F9211240BB60F922F933F934F932A
:101350005F936F937F938F939F93AF93BF93EF931D
:10136000FF930E948409FF91EF91BF91AF919F91EC
:101370008F917F916F915F914F913F912F910F903E
:101380000BBE0F900FBE0F901F9018956B9AE1E067
:10139000F1E08081886080839D9A80818061808374
:1013A0007398E2E0F1E08081877F8083A598808157
:1013B0008F7E8083089582E8809390008AE18093F5
:1013C0009100E1E7F0E080818160808381E090E03E
:1013D00090939900809398007894089582E8809380
:1013E000A0008AE18093A100E2E7F0E080818160C3
:1013F000808381E090E09093A9008093A800789486
:1014000008950E94EE090E94DB090E94C609089512
:10141000282F392F30939700209396000895282F76
:10142000392F3093A7002093A600089580914E0293
:1014300090914F02892B41F4A59A81E090E090931E
:101440004F0280934E020895A59880E090E0F7CF78
:1014500080914C0290914D02892B61F4E2E0F1E021
:1014600080818061808381E090E090934D02809341
:101470004C020895E2E0F1E080818F7E808380E07D
:1014800090E0F3CF8F938FB78F939F9380914A0211
:1014900090914B02019690934B0280934A029F9148
:1014A0008F918FBF8F9118958F938FB78F939F9345
:1014B000809148029091490201969093490280934D
:1014C00048029F918F918FBF8F91189510924B0278
:1014D00010924A02109249021092480208950F9306
:1014E0001F93CF93DF930E945D0B0E94010A0E941D
:1014F0008307C0910202D091030280910002909173
:101500000102C80FD91F80915202909153020F9788
:101510002CF50E94290880910202909103022091EB
:10152000000230910102820F931F8C179D0759F31F
:101530000E9415082FEF83ED90E3215080409040EA
:10154000E1F700C00000C0910202D0910302809137
:10155000000290910102C80FD91FD5CF80912602B9
:1015600090912702009791F1019769F10E94160965
:1015700080915202909153020F976CF50E942908B6
:1015800080910202909103022091000230910102A9
:10159000820F931F8C179D0759F30E9415082FEF98
:1015A00083ED90E3215080409040E1F700C00000BF
:1015B000C0910202D0910302809100029091010239
:1015C000C80FD91FD5CF0E94B108D2CF0E941508ED
:1015D00001E010E002C000E010E08091260290914E
:1015E00027020097A1F1019779F10E941609012BBA
:1015F00081F580915202909153020F9754F50E9409
:1016000029088091020290910302209100023091FA
:101610000102820F931F8C179D0759F30E94150832
:101620002FEF83ED90E3215080409040E1F700C020
:101630000000C0910202D0910302809100029091BB
:101640000102C80FD91FD5CF0E94B108D0CF0E9488
:101650001508DF91CF911F910F9108958BE2809330
:1016600020018AE58093210181E2809373008FEF4E
:101670009FEF909329018093280184E190E090935B
:101680002B0180932A0190932D0180932C01789453
:101690000895EAE0F1E0808180618083808180624A
:1016A0008083ABE0B1E08C918F7E8C938C918F7DA9
:1016B0008C9380818D7F808308950E94490B0E94C6
:1016C0002E0B08958F938FB78F938BB78F93EF93D4
:1016D000FF93E1E2F1E0808180648083FF91EF91EC
:1016E0008F918BBF8F918FBF8F9118950F920FB6EF
:1016F0000F921F9211242F932BB72F933F936F9329
:101700007F938F939F93AF93BF93EF93FF938091BA
:10171000210186FF1EC080912601909127019093A0
:10172000570280935602E1E2F1E080818F7B808353
:10173000FF91EF91BF91AF919F918F917F916F91A9
:101740003F912F912BBF2F911F900F900FBE0F90A5
:101750001895209126013091270180915602909191
:101760005702281B390BA9E0BCE80E94050C002495
:10177000880F991F001C880F991F001C892F902D1E
:101780002091500230915102232BC9F490935302BF
:10179000809352028091500290915102892BA1F4C2
:1017A00081E090E09093510280935002E0E2F1E0FA
:1017B0008081877F8083808180628083B9CF90938E
:1017C000550280935402E6CF1092510210925002BB
:1017D000E0E2F1E080818F7D80838081886080837A
:1017E000A7CF97FB072E16F4009407D077FD09D0FA
:1017F0000E94140C07FC05D03EF4909581959F4FF4
:101800000895709561957F4F0895A29FB001B39F91
:10181000C001A39F700D811D1124911DB29F700DF9
:10182000811D1124911D0895AA1BBB1B51E107C006
:10183000AA1FBB1FA617B70710F0A61BB70B881F60
:10184000991F5A95A9F780959095BC01CD010895EF
:04185000F894FFCF3A
:10185400FFFFFFFFFC006000DA00F2006600B60044
:10186400BE00E000FE00F600EE003E009C007A00A0
:041874009E008E0044
:00000001FF
