:100000000C9472000C9486000C9486000C9486006C
:100010000C9486000C9486000C9486000C94860048
:100020000C9486000C9486000C9486000C94860038
:100030000C9486000C9486000C9486000C94860028
:100040000C9486000C9486000C9486000C94860018
:100050000C9486000C9486000C9486000C94860008
:100060000C9486000C9486000C9486000C948600F8
:100070000C9486000C9486000C9486000C948600E8
:100080000C9486000C9486000C9486000C948600D8
:100090000C9486000C9486000C9486000C948600C8
:1000A0000C9486000C9486000C9486000C948600B8
:1000B0000C9486000C9486000C9439020C948600F3
:1000C0000C9486000C9486000C9425020C948600F7
:1000D0000C9486000C9486000C9486000C94860088
:1000E0000C94860011241FBECFEFD1E2DEBFCDBF3E
:1000F00000E00CBF22E0A0E0B2E001C01D92A03100
:10010000B207E1F70E94C1000C94CD040C940000EA
:100110003F98279A2F9A0895379911C02FEF89EFAA
:1001200090E0215080409040E1F700C000003799F6
:1001300010C010920302109202022F9808952FEF20
:1001400089EF90E0215080409040E1F700C000002E
:10015000379B08958091020290910302892B49F404
:100160008091000290910102019690930102809388
:10017000000281E090E090930302809302022F9AA4
:10018000E8CFFFCFCF93DF9300D00F92CDB7DEB78C
:1001900084E690E00E94DE0184E690E00E94D701B0
:1001A0004FC080910A0290910B02A0910C02B09175
:1001B0000D0289839A83AB83BC8320910602309120
:1001C00007024091080250910902BC01CD010E9432
:1001D000010388230CF06FC080910A0290910B02FA
:1001E000A0910C02B0910D0289839A83AB83BC83EA
:1001F00020910602309107024091080250910902B5
:10020000BC01CD010E94060320E030E048EC52E43E
:1002100069837A838B839C8369817A818B819C81BA
:100220000E94600469837A838B839C8369817A81CD
:100230008B819C810E947803862F972F0E94DE017C
:1002400080910A0290910B02A0910C02B0910D02D4
:1002500089839A83AB83BC8320E030E0A901BC0191
:10026000CD010E94010381119CCF809106029091E3
:100270000702A0910802B091090289839A83AB8397
:10028000BC8320E030E048E452E4BC01CD010E9490
:10029000010388230CF485CF80E090E00E94DE010A
:1002A00080E090E00E94D7010F900F900F900F9088
:1002B000DF91CF9108958091060290910702A0915D
:1002C0000802B091090289839A83AB83BC83209191
:1002D0000A0230910B0240910C0250910D02BC01B8
:1002E000CD010E94060320E030E048EC52E469832F
:1002F0007A838B839C8369817A818B819C810E9424
:10030000600469837A838B839C8369817A818B8182
:100310009C810E947803862F972F0E94D70190CF4F
:100320006B9AA1E0B1E08C9188608C9344B323B3C5
:1003300081E090E0BC0102C0660F771F4A95E2F7AA
:10034000262B23BBE2E0F1E030812C9102C0880F24
:10035000991F3A95E2F7822B8C9373988081877F5F
:10036000808380818F7E8083A498089582EC80931F
:1003700090008CE18093910081E090E0909399004F
:1003800080939800089582EC8093A0008CE1809384
:10039000A10081E090E09093A9008093A8000895C7
:1003A0000E94C3010E94B6010E9490010895282F67
:1003B000392F30939700209396000895282F392FD6
:1003C0003093A7002093A600089584B39FEE892759
:1003D00084BB0895E2E0F1E0808190E18927808389
:1003E00008958BE2809320018AE58093210181E2C8
:1003F000809373008FEF9FEF9093290180932801E2
:1004000084E190E090932B0180932A0190932D0139
:1004100080932C0178940895EAE0F1E08081806176
:100420008083808180628083ABE0B1E08C918F7E9D
:100430008C938C918F7D8C9380818D7F80830895A8
:100440000E940C020E94F10108958F938FB78F9341
:100450008BB78F93EF93FF93E1E2F1E080818064AB
:100460008083FF91EF918F918BBF8F918FBF8F9181
:1004700018951F920F920FB60F9211240BB60F9280
:100480002F933F934F935F936F937F938F939F939C
:10049000AF93BF93EF93FF93CF93DF9300D00F926F
:1004A000CDB7DEB78091210186FF26C0809126015D
:1004B0009091270190930F0280930E02E1E2F1E008
:1004C00080818F7B80830F900F900F900F90DF9132
:1004D000CF91FF91EF91BF91AF919F918F917F91BC
:1004E0006F915F914F913F912F910F900BBE0F90A5
:1004F0000FBE0F901F901895209126013091270173
:1005000080910E0290910F02281B390BA9E0BCE8E4
:100510000E94F2020024880F991F001C880F991F67
:10052000001C892F902D2091040230910502232B6D
:1005300099F544E6489F9001499F300D1124C90167
:10054000330FAA0BBB0B89839A83AB83BC83BC019B
:10055000CD010E94B003462F572F682F792F40936B
:10056000060250930702609308027093090280917B
:10057000040290910502892B41F581E090E090936F
:10058000050280930402E0E2F1E08081877F8083AE
:1005900080818062808397CF9C01990F440B550B1B
:1005A00029833A834B835C83CA01B9010E94B0035B
:1005B000462F572F682F792F40930A0250930B0232
:1005C00060930C0270930D02D2CF1092050210922C
:1005D0000402E0E2F1E080818F7D80838081886089
:1005E000808371CFA29FB001B39FC001A39F700D04
:1005F000811D1124911DB29F700D811D1124911D2B
:1006000008950E94EB0308F481E008950E941A0304
:100610000C9426040E941F0458F00E94180440F015
:1006200029F45F3F29F00C940F0451110C945A04E3
:100630000C9415040E94370468F39923B1F35523F1
:1006400091F3951B550BBB27AA27621773078407E5
:1006500038F09F5F5F4F220F331F441FAA1FA9F37B
:1006600035D00E2E3AF0E0E832D091505040E69569
:10067000001CCAF72BD0FE2F29D0660F771F881FCA
:10068000BB1F261737074807AB07B0E809F0BB0BBD
:10069000802DBF01FF2793585F4F3AF09E3F5105D1
:1006A00078F00C940F040C945A045F3FE4F3983EE6
:1006B000D4F3869577956795B795F7959F5FC9F7BA
:1006C000880F911D9695879597F90895E1E0660F3B
:1006D000771F881FBB1F621773078407BA0720F0B4
:1006E000621B730B840BBA0BEE1F88F7E09508951D
:1006F0000E947F036894B1110C945A0408950E94DB
:100700003F0488F09F5798F0B92F9927B751B0F060
:10071000E1F0660F771F881F991F1AF0BA95C9F785
:1007200014C0B13091F00E945904B1E008950C94C6
:100730005904672F782F8827B85F39F0B93FCCF379
:10074000869577956795B395D9F73EF49095809502
:10075000709561957F4F8F4F9F4F0895E89409C022
:1007600097FB3EF490958095709561957F4F8F4FE4
:100770009F4F9923A9F0F92F96E9BB279395F695FA
:10078000879577956795B795F111F8CFFAF4BB0F78
:1007900011F460FF1BC06F5F7F4F8F4F9F4F16C0DC
:1007A000882311F096E911C0772321F09EE8872F66
:1007B000762F05C0662371F096E8862F70E060E022
:1007C0002AF09A95660F771F881FDAF7880F96959B
:1007D000879597F90895990F0008550FAA0BE0E83F
:1007E000FEEF16161706E807F907C0F012161306F3
:1007F000E407F50798F0621B730B840B950B39F433
:100800000A2661F0232B242B252B21F408950A2698
:1008100009F4A140A6958FEF811D811D089597F9D8
:100820009F6780E870E060E008959FEF80EC089596
:1008300000240A94161617061806090608950024BF
:100840000A9412161306140605060895092E039439
:10085000000C11F4882352F0BB0F40F4BF2B11F4AD
:1008600060FF04C06F5F7F4F8F4F9F4F089557FD0C
:100870009058440F551F59F05F3F71F04795880F0E
:1008800097FB991F61F09F3F79F0879508951216A5
:1008900013061406551FF2CF4695F1DF08C0161651
:1008A00017061806991FF1CF869571056105089402
:1008B0000895E894BB2766277727CB0197F9089519
:1008C0000E9473040C9426040E94180438F00E94BD
:1008D0001F0420F0952311F00C940F040C941504C0
:1008E00011240C945A040E94370470F3959FC1F3AD
:1008F000950F50E0551F629FF001729FBB27F00DCE
:10090000B11D639FAA27F00DB11DAA1F649F662722
:10091000B00DA11D661F829F2227B00DA11D621F71
:10092000739FB00DA11D621F839FA00D611D221F2B
:10093000749F3327A00D611D231F849F600D211D0F
:10094000822F762F6A2F11249F5750409AF0F1F092
:1009500088234AF0EE0FFF1FBB1F661F771F881FFB
:1009600091505040A9F79E3F510580F00C940F0420
:100970000C945A045F3FE4F3983ED4F38695779540
:100980006795B795F795E7959F5FC1F7FE2B880FA1
:0E099000911D9695879597F90895F894FFCFDD
:00000001FF
