:100000000C9472000C9493000C9493000C94930045
:100010000C9493000C9493000C9493000C94930014
:100020000C9493000C9493000C9493000C94930004
:100030000C9493000C9493000C9493000C949300F4
:100040000C9493000C9493000C9493000C949300E4
:100050000C9493000C9493000C9493000C949300D4
:100060000C9493000C9493000C9493000C949300C4
:100070000C9493000C9493000C9493000C949300B4
:100080000C9493000C9493000C9493000C943709F7
:100090000C9493000C9493000C9493000C94930094
:1000A0000C9493000C9493000C9493000C94930084
:1000B0000C9493000C9425090C949A090C949300C9
:1000C0000C9493000C9493000C9486090C94930068
:1000D0000C9493000C9493000C9493000C94930054
:1000E0000C94930011241FBECFEFD1E2DEBFCDBF31
:1000F00000E00CBF12E0A0E0B2E0ECE9F4E100E0C7
:100100000BBF02C007900D92A032B107D9F722E0D1
:10011000A0E2B2E001C01D92A235B207E1F70E9451
:1001200026070C944C0A0C9400000F9A0B9A0D9A17
:1001300013981598089528E030E008C01798139A8E
:100140001398215031092115310539F0982F9170FC
:100150008595992399F3179AF2CF089520E130E01D
:10016000A90102C0440F551F8A95E2F7CA01809584
:100170000E949B000895CF93DF93D62FC72F0E9434
:100180009B008D2F9C2F0E94AE00159A1598DF9131
:10019000CF9108950F931F93CF93DF93C82FD92F3B
:1001A00000E010E09E01ADECBCEC0E94290A9C012D
:1001B000369527953695279536952795C901880F49
:1001C000991F880F991F820F931F880F991FFE0197
:1001D000E81BF90BEE0FFF1FE050FE4FB8018081C6
:1001E0000E94BB009E01ADECBCEC0E94290AEC0110
:1001F000D695C795D695C795D695C7958FE99FE0B3
:100200000197F1F700C000000F5F1F4F0430110588
:1002100049F6DF91CF911F910F910895CF93DF930E
:1002200081B18A7A81B982B1856582B980913A02B9
:1002300090913B028230910509F44EC30CF04FC0FF
:10024000009709F483C0019709F08AC580912202C2
:10025000909123028130910509F42CC282309105DE
:1002600009F478C2892B09F4B0C10499E8C28091DD
:10027000300290913102892B09F0E1C28FE39CE9B1
:100280000197F1F700C000000499D9C280913002B3
:1002900090913102892B09F0D2C281E090E09093D5
:1002A000310280933002049BD3C28FE39CE9019713
:1002B000F1F700C00000049BCBC280913002909106
:1002C0003102019709F0C4C210923102109230023B
:1002D00082E090E090933B0280933A02B9C2039788
:1002E00009F03EC50699FCC4809126029091270230
:1002F000892B09F0F5C48FE39CE90197F1F700C061
:1003000000000699EDC48091260290912702892B66
:1003100009F0E6C481E090E09093270280932602E2
:10032000069BE7C48FE39CE90197F1F700C000004A
:10033000069BDFC48091260290912702019709F065
:10034000D8C41092270210922602D3C480912402AE
:1003500090912502CAE0D0E0BE010E94150AFC017E
:10036000EE0FFF1FE050FE4F60E070E080810E94C2
:10037000BB008FE99FE00197F1F700C0000080917A
:10038000240290912502BE010E94150ACB01BE01F4
:100390000E94150AFC01EE0FFF1FE050FE4F61E0C6
:1003A00070E080810E94BB008FE99FE00197F1F728
:1003B00000C00000809124029091250264E670E064
:1003C0000E94150ACB01BE010E94150AFC01EE0F26
:1003D000FF1FE050FE4F62E070E080810E94BB0092
:1003E0008FE99FE00197F1F700C0000063E070E043
:1003F0008CEF0E94BB008FE99FE00197F1F700C0EE
:10040000000063E570E080E00E94BB008FE99FE0A0
:100410000197F1F700C00000029938C080913802BE
:1004200090913902892B91F58FE39CE90197F1F7BF
:1004300000C0000002992AC08091380290913902D0
:10044000892B21F581E090E0909339028093380266
:10045000029B24C08FE39CE90197F1F700C00000E4
:10046000029B1CC080913802909139020197B1F42F
:100470008091240290912502019690932502809309
:100480002402109239021092380208C0029B06C062
:1004900080913802909139020197E1F2049935C0B8
:1004A0008091360290913702892B79F58FE39CE990
:1004B0000197F1F700C00000049927C0809136022F
:1004C00090913702892B09F581E090E090933702F3
:1004D00080933602049B21C08FE39CE90197F1F7DA
:1004E00000C00000049B19C0809136029091370231
:1004F000019799F4109237021092360281E090E051
:1005000090933B0280933A0208C0049B06C08091FE
:100510003602909137020197F9F2009921C080913B
:10052000340290913502892BD9F48FE39CE901972D
:10053000F1F700C00000009913C08091340290913F
:100540003502892B69F481E090E090933502809325
:1005500034021092250210922402009B01C409C0AB
:10056000009BFEC38091340290913502019709F0FF
:10057000F7C38FE39CE90197F1F700C00000009BEF
:10058000EFC38091340290913502019709F0E8C3DE
:1005900063E070E08CEF0E94BB008FE99FE0019761
:1005A000F1F700C000006AE070E080E00E94BB004C
:1005B0008FE99FE00197F1F700C0000081E090E033
:1005C0009093350280933402CBC3029933C080915B
:1005D000320290913302892B69F58FE39CE90197F0
:1005E000F1F700C00000029925C08091320290917D
:1005F0003302892BF9F481E090E0909323028093F9
:1006000022029093330280933202029B1BC08FE33D
:100610009CE90197F1F700C00000029B13C0809194
:10062000320290913302019769F4109233021092D2
:10063000320208C0029B06C08091320290913302C0
:10064000019729F363E070E080E60E94BB008FE928
:100650009FE00197F1F700C0000062E070E083E0E6
:100660000E94BB008FE99FE00197F1F700C00000F6
:1006700061E070E08CE10E94BB008FE99FE0019790
:10068000F1F700C0000060E070E08CE80E94BB0061
:100690008FE99FE00197F1F700C0000063E570E08B
:1006A00080E00E94BB008FE99FE00197F1F700C056
:1006B0000000DBCD029957C3809132029091330242
:1006C000892B09F050C38FE39CE90197F1F700C033
:1006D0000000029914C08091320290913302892B5C
:1006E00071F482E090E0909323028093220281E0F3
:1006F00090E0909333028093320280B136C3029B24
:1007000034C38091220290912302019709F02DC3F6
:100710008091320290913302019709F026C38FE352
:100720009CE90197F1F700C00000029B1EC3809175
:10073000220290912302019709F017C3809132029F
:1007400090913302019709F010C310923302109276
:1007500032020BC3029933C080913202909133026E
:10076000892B69F58FE39CE90197F1F700C0000040
:10077000029925C08091320290913302892BF9F4BD
:10078000109223021092220281E090E090933302B3
:1007900080933202029B1BC08FE39CE90197F1F723
:1007A00000C00000029B13C080913202909133027E
:1007B000019769F4109233021092320208C0029B32
:1007C00006C08091320290913302019729F363E0D1
:1007D00070E080E60E94BB008FE99FE00197F1F78F
:1007E00000C0000062E070E082E00E94BB008FE980
:1007F0009FE00197F1F700C0000061E070E08CE13C
:100800000E94BB008FE99FE00197F1F700C0000054
:1008100060E070E08DE80E94BB008FE99FE00197E7
:10082000F1F700C0000063E570E080E00E94BB00CB
:100830008FE99FE00197F1F700C0000016CD049BFF
:1008400007C08091300290913102019709F42DCDBB
:10085000009921C080912E0290912F02892BD9F40A
:100860008FE39CE90197F1F700C00000009913C0E5
:1008700080912E0290912F02892B69F4109223020D
:100880001092220281E090E090932F0280932E023A
:10089000009B66C209C0009B63C280912E029091AA
:1008A0002F02019709F05CC28FE39CE90197F1F7F1
:1008B00000C00000009B54C280912E0290912F0234
:1008C000019709F04DC210923B0210923A02109229
:1008D0002F0210922E0244C2809120029091210298
:1008E0008130910509F4B5C08230910509F434C115
:1008F000892BD1F10499A5C180912A0290912B02F4
:10090000892B09F09EC18FE39CE90197F1F700C0A4
:100910000000049996C180912A0290912B02892BA4
:1009200009F08FC181E090E090932B0280932A021E
:10093000049B90C18FE39CE90197F1F700C0000090
:10094000049B88C180912A0290912B02019709F0A3
:1009500081C110922B0210922A0283E090E09093C2
:100960003B0280933A0276C1029933C080912C02F7
:1009700090912D02892B69F58FE39CE90197F1F79E
:1009800000C00000029925C080912C0290912D0298
:10099000892BF9F481E090E090932102809320026A
:1009A00090932D0280932C02029B1BC08FE39CE945
:1009B0000197F1F700C00000029B13C080912C0248
:1009C00090912D02019769F410922D0210922C0241
:1009D00008C0029B06C080912C0290912D020197C5
:1009E00029F363E070E08AED0E94BB008FE99FE08D
:1009F0000197F1F700C0000062E070E083E00E9420
:100A0000BB008FE99FE00197F1F700C0000061E0B3
:100A100070E08CE10E94BB008FE99FE00197F1F745
:100A200000C0000060E070E08CE80E94BB008FE92D
:100A30009FE00197F1F700C0000063E570E080E0FF
:100A40000E94BB008FE99FE00197F1F700C0000012
:100A500051CF029920C080912C0290912D02892BB8
:100A6000D1F48FE39CE90197F1F700C000000299EF
:100A700012C080912C0290912D02892B61F482E0AA
:100A800090E0909321028093200281E090E0909387
:100A90002D0280932C02029B06C08091220290912D
:100AA00023020197C1F163E070E08AED0E94BB0070
:100AB0008FE99FE00197F1F700C0000062E070E06D
:100AC00082E00E94BB008FE99FE00197F1F700C030
:100AD000000061E070E08DE10E94BB008FE99FE0C3
:100AE0000197F1F700C0000060E070E08CE80E9420
:100AF000BB008FE99FE00197F1F700C0000063E5BC
:100B000070E080E00E94BB008FE99FE00197F1F761
:100B100000C00000EFCE80912C0290912D02019731
:100B200011F68FE39CE90197F1F700C00000029BEA
:100B3000BACF8091220290912302019709F0B3CF9E
:100B400080912C0290912D02019709F0ACCF109268
:100B50002D0210922C02A7CF029933C080912C0253
:100B600090912D02892B69F58FE39CE90197F1F7AC
:100B700000C00000029925C080912C0290912D02A6
:100B8000892BF9F4109221021092200281E090E06A
:100B900090932D0280932C02029B1BC08FE39CE953
:100BA0000197F1F700C00000029B13C080912C0256
:100BB00090912D02019769F410922D0210922C024F
:100BC00008C0029B06C080912C0290912D020197D3
:100BD00029F363E070E08AED0E94BB008FE99FE09B
:100BE0000197F1F700C0000062E070E082E00E942F
:100BF000BB008FE99FE00197F1F700C0000061E0C2
:100C000070E08CE10E94BB008FE99FE00197F1F753
:100C100000C0000060E070E08DE80E94BB008FE93A
:100C20009FE00197F1F700C0000063E570E080E00D
:100C30000E94BB008FE99FE00197F1F700C0000020
:100C400059CE049B07C080912A0290912B020197F4
:100C500009F470CE009921C0809128029091290258
:100C6000892BD9F48FE39CE90197F1F700C00000CC
:100C7000009913C08091280290912902892B69F470
:100C8000109221021092200281E090E090932902BC
:100C900080932802009B64C009C0009B61C08091C2
:100CA000280290912902019709F05AC08FE39CE92C
:100CB0000197F1F700C00000009B52C0809128020C
:100CC00090912902019709F04BC081E090E0909348
:100CD0003B0280933A02109229021092280240C0EF
:100CE000069B07C08091260290912702019709F484
:100CF00019CB63E070E08EE80E94BB008FE99FE0B3
:100D00000197F1F700C0000062E070E08CE80E94FB
:100D1000BB008FE99FE00197F1F700C0000061E0A0
:100D200070E08EE90E94BB008FE99FE00197F1F728
:100D300000C0000060E070E08AE70E94BB008FE91D
:100D40009FE00197F1F700C0000063E570E080E0EC
:100D50000E94BB008FE99FE00197F1F700C00000FF
:100D6000DF91CF9108950299D3CC63E070E080E6E3
:100D70000E94BB008FE99FE00197F1F700C00000DF
:100D800062E070E082E00E94BB008FE99FE0019783
:100D9000F1F700C0000061E070E08DE10E94BB004F
:100DA0008FE99FE00197F1F700C0000060E070E07C
:100DB0008CE80E94BB008FE99FE00197F1F700C02B
:100DC000000063E570E080E00E94BB008FE99FE0D7
:100DD0000197F1F700C0000048CA3F98279A2F9A60
:100DE0000895379911C02FEF89EF90E0215080408E
:100DF0009040E1F700C00000379910C010923F0208
:100E000010923E022F9808952FEF89EF90E0215025
:100E100080409040E1F700C00000379B089580912A
:100E20003E0290913F02892B49F480913C029091BF
:100E30003D02019690933D0280933C0281E090E058
:100E400090933F0280933E022F9AE8CF0E9481093F
:100E50000E94E4080E945C070E94DF07FBCF80919C
:100E60004C0290914D0220914E0230914F02820F20
:100E7000931F0D96909341028093400208958EE750
:100E800094E00E94F2088EE794E00E94EB08089537
:100E900080E090E00E94F20880E090E00E94EB0881
:100EA0000895262F372F281739070CF4019782173A
:100EB00093070CF401960895EF92FF920F931F93FE
:100EC000CF93DF9380E090E00F2EF3E0EF2EF02D34
:100ED000F12CD2E0C0E001E010E013C081309105B8
:100EE000B1F520914E0230914F02203131050CF0C6
:100EF0005DC020914C0230914D02203131050CF043
:100F000055C040914E0250914F0220914C023091B9
:100F10004D024217530711F340914E0250914F0278
:100F200020914C0230914D024217530724F502974D
:100F3000C9F420914C0230914D0280914E02909163
:100F40004F02281739073CF18D2F9C2FCACF8EE70F
:100F500094E00E94F2088EE794E00E94EB08802F54
:100F6000912FBFCF89EA95E00E94F2088FE794E0C5
:100F70000E94EB08DECF40914C0250914D0220912F
:100F80004E0230914F02421753070CF0AACF833024
:100F9000910509F4A6CF89EA95E00E94EB088FE756
:100FA00094E00E94F2088E2D9F2D9BCF0E9448074F
:100FB000DF91CF911F910F91FF90EF9008950E94C4
:100FC000490980914402909145028C319C4048F43B
:100FD0000E943F0780914402909145028C319C40D1
:100FE000B8F30E9449090E94F90880914402909147
:100FF00045028839984048F40E943F078091440296
:101000009091450288399840B8F30E94F9080E94EF
:10101000490980914402909145028C3B9B4148F4E0
:101020000E943F0780914402909145028C3B9B4176
:10103000B8F30E94F9080E944909809144029091F6
:1010400045028839984048F40E943F078091440245
:101050009091450288399840B8F30E94F9080E949F
:1010600049090E943F0780914C0290914D024097A0
:1010700044F00E943F0780914C0290914D024097AE
:10108000C4F70E94480708950E94490980914402CC
:10109000909145028433984048F40E943F07809124
:1010A00044029091450284339840B8F30E94490964
:1010B0000E940B0980914402909145028636984027
:1010C00048F40E943F078091440290914502863681
:1010D0009840B8F30E940B090E944909809144028C
:1010E000909145028C3B9B4148F40E943F078091C0
:1010F0004402909145028C3B9B41B8F30E940B093E
:101100000E94490980914402909145028636984098
:1011100048F40E943F078091440290914502863630
:101120009840B8F30E940B090E9449090E943F07AA
:1011300080914C0290914D024A9744F00E943F07E3
:1011400080914C0290914D024A97C4F70E94480743
:1011500008956B9AE1E0F1E08081886080839D9A38
:101160008081806180837398E2E0F1E08081877FF5
:101170008083A59880818F7E8083089582E8809304
:1011800090008AE180939100E1E7F0E08081816046
:10119000808381E090E09093990080939800789408
:1011A000089582E88093A0008AE18093A100E2E79D
:1011B000F0E080818160808381E090E09093A900DD
:1011C0008093A800789408950E94D1080E94BE08D8
:1011D0000E94A9080895282F392F30939700209353
:1011E00096000895282F392F3093A7002093A6004A
:1011F00008958091480290914902892B41F4A59A63
:1012000081E090E090934902809348020895A59868
:1012100080E090E0F7CF8091460290914702892BC1
:1012200061F4E2E0F1E080818061808381E090E020
:1012300090934702809346020895E2E0F1E08081B6
:101240008F7E808380E090E0F3CF8F938FB78F9372
:101250009F9380914402909145020196909345029C
:10126000809344029F918F918FBF8F9118958F9398
:101270008FB78F939F938091420290914302019682
:1012800090934302809342029F918F918FBF8F91E1
:101290001895109245021092440210924302109247
:1012A000420208958BE2809320018AE58093210118
:1012B00081E2809373008FEF9FEF909329018093D9
:1012C000280184E190E090932B0180932A01909370
:1012D0002D0180932C0178940895EAE0F1E080815B
:1012E00080618083808180628083ABE0B1E08C91FB
:1012F0008F7E8C938C918F7D8C9380818D7F80836A
:1013000008950E946D090E94520908958F938FB726
:101310008F938BB78F93EF93FF93E1E2F1E080819E
:1013200080648083FF91EF918F918BBF8F918FBFEE
:101330008F9118950F920FB60F921F9211242F9331
:101340002BB72F933F936F937F938F939F93AF937D
:10135000BF93EF93FF938091210186FF1EC0809180
:101360002601909127019093510280935002E1E26F
:10137000F1E080818F7B8083FF91EF91BF91AF91EE
:101380009F918F917F916F913F912F912BBF2F91C3
:101390001F900F900FBE0F9018952091260130914D
:1013A00027018091500290915102281B390BA9E02E
:1013B000BCE80E94290A0024880F991F001C880F8E
:1013C000991F001C892F902D20914A0230914B02C9
:1013D000232BC9F490934D0280934C0280914A02D2
:1013E00090914B02892BA1F481E090E090934B0205
:1013F00080934A02E0E2F1E08081877F80838081F0
:1014000080628083B9CF90934F0280934E02E6CFE3
:1014100010924B0210924A02E0E2F1E080818F7D4F
:101420008083808188608083A7CF97FB072E16F486
:10143000009407D077FD09D00E94380A07FC05D038
:101440003EF4909581959F4F0895709561957F4FDB
:101450000895A29FB001B39FC001A39F700D811D8D
:101460001124911DB29F700D811D1124911D0895AD
:10147000AA1BBB1B51E107C0AA1FBB1FA617B707BA
:1014800010F0A61BB70B881F991F5A95A9F78095D6
:0C1490009095BC01CD010895F894FFCFA9
:10149C00FC006000DA00F2006600B600BE00E0005E
:1014AC00FE00F600EE003E009C007A009E008E00CE
:00000001FF
