:100000000C9472000C9493000C9493000C94930045
:100010000C9493000C9493000C9493000C94930014
:100020000C9493000C9493000C9493000C94930004
:100030000C9493000C9493000C9493000C949300F4
:100040000C9493000C9493000C9493000C949300E4
:100050000C9493000C9493000C9493000C949300D4
:100060000C9493000C9493000C9493000C949300C4
:100070000C9493000C9493000C9493000C949300B4
:100080000C9493000C9493000C9493000C946003D4
:100090000C9493000C9493000C9493000C94930094
:1000A0000C9493000C9493000C9493000C94930084
:1000B0000C9493000C944E030C94C3030C94930083
:1000C0000C9493000C9493000C94AF030C94930045
:1000D0000C9493000C9493000C9493000C94930054
:1000E0000C94930011241FBECFEFD1E2DEBFCDBF31
:1000F00000E00CBF12E0A0E0B2E0EEE9F8E000E0C2
:100100000BBF02C007900D92A032B107D9F722E0D1
:10011000A0E2B2E001C01D92A633B207E1F70E944F
:1001200057010C944D040C940000E1E0F1E0808153
:10013000806280838081806180839D9AE2E0F1E02B
:1001400080818F7E8083A598089528E030E0E2E0EA
:10015000F1E00EC090819F7D9083908190619083AB
:1001600090819F7E9083215031092115310549F0FE
:10017000982F91708595992369F39081906290836F
:10018000ECCF089590E101C0990F8A95EAF7892F85
:100190000E94A5000895CF93DF93D62FC72F0E940A
:1001A000A5008D2F9C2F0E94C200A59AA598DF91D3
:1001B000CF9108950F931F93CF93DF93C82FD92F1B
:1001C00000E010E09E01ADECBCEC0E943E049C01FE
:1001D000369527953695279536952795C901880F29
:1001E000991F880F991F820F931F880F991FFE0177
:1001F000E81BF90BEE0FFF1FE050FE4FB8018081A6
:100200000E94CB009E01ADECBCEC0E943E04EC01D0
:10021000D695C795D695C795D695C7958FE99FE092
:100220000197F1F700C000000F5F1F4F0430110568
:1002300049F6DF91CF911F910F9108953F98279A2A
:100240002F9A0895379911C02FEF89EF90E0215030
:1002500080409040E1F700C00000379910C0109234
:100260002302109222022F9808952FEF89EF90E039
:10027000215080409040E1F700C00000379B089576
:100280008091220290912302892B49F480912002CF
:10029000909121020196909321028093200281E0A7
:1002A00090E090932302809322022F9AE8CF0E943D
:1002B000AA030E940D030E9474010E9408020E947A
:1002C000740180E090E008958091300290913102B5
:1002D0002091320230913302820F931F0D9690933A
:1002E000250280932402089582E390E00E941B037C
:1002F00082E390E00E941403089580E090E00E9461
:100300001B0380E090E00E9414030895EF92FF9297
:100310000F931F93CF93DF9380913002909131021E
:10032000C2970CF06CC080E090E00F2EF3E0EF2E4F
:10033000F02DF12CD2E0C0E001E010E00BC08130E4
:10034000910571F52091300230913102223331054F
:100350000CF055C04091320250913302209130028E
:10036000309131024217530751F3409132025091BC
:10037000330220913002309131024217530724F5A5
:100380000297C9F48091300290913102209132029B
:1003900030913302821793073CF18D2F9C2FD2CFDF
:1003A00082E390E00E941B0382E390E00E9414032A
:1003B000802F912FC7CF8CE390E00E941B0382E334
:1003C00090E00E941403DECF409130025091310240
:1003D0002091320230913302421753070CF0B2CF12
:1003E0008330910509F4AECF8CE390E00E941403B2
:1003F00082E390E00E941B038E2D9F2DA3CF0E94CD
:100400007D01DF91CF911F910F91FF90EF900895A3
:100410000E947203809128029091290284339840AF
:1004200048F40E947401809128029091290284333B
:100430009840B8F30E9472030E9422038091280220
:10044000909129028636984048F40E947401809168
:1004500028029091290286369840B8F30E94220320
:100460000E94720380912802909129028C3B9B414B
:1004700048F40E94740180912802909129028C3BDB
:100480009B41B8F30E9422030E94720380912802CC
:10049000909129028636984048F40E947401809118
:1004A00028029091290286369840B8F30E942203D0
:1004B0000E9472030E947401809130029091310277
:1004C0004A9744F00E947401809130029091310269
:1004D0004A97C4F70E947D0108950E94720380919B
:1004E0002802909129028433984048F40E947401B4
:1004F000809128029091290284339840B8F30E9499
:1005000072030E943403809128029091290286365A
:10051000984048F40E947401809128029091290229
:1005200086369840B8F30E9434030E94720380918B
:100530002802909129028C3B9B4148F40E9474014F
:1005400080912802909129028C3B9B41B8F30E9434
:1005500034030E947203809128029091290286360A
:10056000984048F40E9474018091280290912902D9
:1005700086369840B8F30E9434030E9472030E94AA
:10058000740180913002909131024A9744F00E94A8
:10059000740180913002909131024A97C4F70E9411
:1005A0007D0108956B9AE1E0F1E0808188608083AD
:1005B0009D9A8081806180837398E2E0F1E0808180
:1005C000877F8083A59880818F7E8083089582ECC9
:1005D000809390008CE180939100E1E7F0E08081CE
:1005E0008160808381E090E09093990080939800EF
:1005F0007894089582EC8093A0008CE18093A10010
:10060000E2E7F0E080818160808381E090E0909378
:10061000A9008093A800789408950E94FA020E948D
:10062000E7020E94D2020895282F392F30939700B5
:10063000209396000895282F392F3093A7002093F8
:10064000A600089580912C0290912D02892B41F4EF
:10065000A59A81E090E090932D0280932C0208955A
:10066000A59880E090E0F7CF80912A0290912B022C
:10067000892B61F4E2E0F1E080818061808381E098
:1006800090E090932B0280932A020895E2E0F1E03B
:1006900080818F7E808380E090E0F3CF8F938FB74F
:1006A0008F939F93809128029091290201969093B5
:1006B0002902809328029F918F918FBF8F91189567
:1006C0008F938FB78F939F938091260290912702EB
:1006D000019690932702809326029F918F918FBF5E
:1006E0008F911895109229021092280210922702D9
:1006F0001092260208958BE2809320018AE5809370
:10070000210181E2809373008FEF9FEF9093290185
:100710008093280184E190E090932B0180932A013B
:1007200090932D0180932C0178940895EAE0F1E0F4
:10073000808180618083808180628083ABE0B1E0D2
:100740008C918F7E8C938C918F7D8C9380818D7F0B
:10075000808308950E9496030E947B0308958F93DF
:100760008FB78F938BB78F93EF93FF93E1E2F1E015
:10077000808180648083FF91EF918F918BBF8F91F7
:100780008FBF8F9118950F920FB60F921F92112461
:100790002F932BB72F933F936F937F938F939F93B9
:1007A000AF93BF93EF93FF938091210186FF1EC00B
:1007B0008091260190912701909335028093340215
:1007C000E1E2F1E080818F7B8083FF91EF91BF9127
:1007D000AF919F918F917F916F913F912F912BBFFF
:1007E0002F911F900F900FBE0F901895209126010A
:1007F000309127018091340290913502281B390BEA
:10080000A9E0BCE80E943E040024880F991F001C48
:10081000880F991F001C892F902D20912E02309156
:100820002F02232BC9F490933102809330028091E0
:100830002E0290912F02892BA1F481E090E09093F9
:100840002F0280932E02E0E2F1E08081877F808397
:10085000808180628083B9CF90933302809332028B
:10086000E6CF10922F0210922E02E0E2F1E080819A
:100870008F7D8083808188608083A7CFA29FB00115
:10088000B39FC001A39F700D811D1124911DB29FC4
:0E089000700D811D1124911D0895F894FFCF65
:10089E0003FF9FFF25FF0DFF99FF49FF41FF1FFF3C
:1008AE0001FF09FF11FFC1FF63FF85FF61FF71FFAC
:00000001FF
