:100000000C9472000C9486000C9486000C9486006C
:100010000C9486000C9486000C9486000C94860048
:100020000C9486000C9486000C9486000C94860038
:100030000C9486000C9486000C9486000C94860028
:100040000C9486000C9486000C9486000C94860018
:100050000C9486000C9486000C9486000C94860008
:100060000C9486000C9486000C9486000C948600F8
:100070000C9486000C9486000C9486000C948600E8
:100080000C9486000C9486000C9486000C948600D8
:100090000C9486000C9486000C9486000C948600C8
:1000A0000C9486000C9486000C9486000C948600B8
:1000B0000C9486000C9486000C946F010C948600BE
:1000C0000C9486000C9486000C945B010C948600C2
:1000D0000C9486000C9486000C9486000C94860088
:1000E0000C94860011241FBECFEFD1E2DEBFCDBF3E
:1000F00000E00CBF22E0A0E0B2E001C01D92AC30F5
:10010000B207E1F70E94C1000C9401020C940000B8
:100110003F98279A2F9A0895379911C02FEF89EFAA
:1001200090E0215080409040E1F700C000003799F6
:1001300010C010920302109202022F9808952FEF20
:1001400089EF90E0215080409040E1F700C000002E
:10015000379B08958091020290910302892B49F404
:100160008091000290910102019690930102809388
:10017000000281E090E090930302809302022F9AA4
:10018000E8CFFFCF2091080230910902809106024A
:1001900090910702281739074CF48091080290913A
:1001A000090280910602909107020895809106024B
:1001B00090910702809108029091090208956B9A2C
:1001C000E1E0F1E08081886080837398E2E0F1E013
:1001D0008081877F8083089582EC809390008CE1FA
:1001E0008093910081E090E0909399008093980033
:1001F000089582EC8093A0008CE18093A10081E0BF
:1002000090E09093A9008093A80008950E94F900BF
:100210000E94EC000E94DF000895282F392F3093B0
:100220009700209396000895282F392F3093A70028
:100230002093A600089583B39FEE892783BB08957A
:10024000E1E0F1E0808190E18927808308958BE2ED
:10025000809320018AE58093210181E280937300DD
:100260008FEF9FEF909329018093280184E190E024
:1002700090932B0180932A0190932D0180932C0160
:1002800078940895EAE0F1E0808180618083808144
:1002900080628083ABE0B1E08C918F7E8C938C91F7
:1002A0008F7D8C9380818D7F808308950E94420191
:1002B0000E94270108958F938FB78F938BB78F93E9
:1002C000EF93FF93E1E2F1E0808180648083FF910E
:1002D000EF918F918BBF8F918FBF8F9118950F9258
:1002E0000FB60F921F9211242F932BB72F933F938A
:1002F0004F936F937F938F939F93AF93BF93EF939E
:10030000FF938091210186FF1FC08091260190916B
:10031000270190930B0280930A02E1E2F1E08081D1
:100320008F7B8083FF91EF91BF91AF919F918F91D0
:100330007F916F914F913F912F912BBF2F911F90E4
:100340000F900FBE0F901895209126013091270134
:1003500080910A0290910B02281B390BA9E0BCE89E
:100360000E94F2010024880F991F001C880F991F1A
:10037000001C892F902D2091040230910502232B1F
:10038000F9F444E6489F9001499F300D11243093C1
:100390000702209306028091040290910502892BA6
:1003A000A1F481E090E09093050280930402E0E2E2
:1003B000F1E08081877F8083808180628083B2CFFB
:1003C0009093090280930802E6CF109205021092E2
:1003D0000402E0E2F1E080818F7D8083808188608B
:1003E0008083A0CFA29FB001B39FC001A39F700DD7
:1003F000811D1124911DB29F700D811D1124911D2D
:060400000895F894FFCFFF
:00000001FF
