:100000000C9472000C9486000C9486000C9486006C
:100010000C9486000C9486000C9486000C94860048
:100020000C9486000C9486000C9486000C94860038
:100030000C9486000C9486000C9486000C94860028
:100040000C9486000C9486000C9486000C94860018
:100050000C9486000C9486000C9486000C94860008
:100060000C9486000C9486000C9486000C948600F8
:100070000C9486000C9486000C9486000C948600E8
:100080000C9486000C9486000C9486000C948600D8
:100090000C9486000C9486000C9486000C948600C8
:1000A0000C9486000C9486000C9486000C948600B8
:1000B0000C9486000C9486000C9460010C948600CD
:1000C0000C9486000C9486000C944C010C948600D1
:1000D0000C9486000C9486000C9486000C94860088
:1000E0000C94860011241FBECFEFD1E2DEBFCDBF3E
:1000F00000E00CBF22E0A0E0B2E001C01D92AC30F5
:10010000B207E1F70E94C1000C94F2010C940000C8
:100110003F98279A2F9A0895379911C02FEF89EFAA
:1001200090E0215080409040E1F700C000003799F6
:1001300010C010920302109202022F9808952FEF20
:1001400089EF90E0215080409040E1F700C000002E
:10015000379B08958091020290910302892B49F404
:100160008091000290910102019690930102809388
:10017000000281E090E090930302809302022F9AA4
:10018000E8CFFFCF2091080230910902809106024A
:1001900090910702281739074CF48091080290913A
:1001A000090280910602909107020895809106024B
:1001B0009091070280910802909109020895269A71
:1001C000259A2E982D98269A249AE2E0F1E08081D3
:1001D000806480832C9A089582EF8093800089E167
:1001E0008093810081E090E0909387008093860067
:1001F00008950E94EC000E94DF000895282F392FF7
:1002000030938900209388000895282F392F309348
:100210008B0020938A000895E2E0F1E0808190E471
:1002200089278083089585B190E1892785B908954C
:100230008BE2809320018AE58093210181E2809303
:1002400073008FEF9FEF909329018093280184E141
:1002500090E090932B0180932A0190932D0180933D
:100260002C0178940895EAE0F1E080818061808338
:10027000808180628083ABE0B1E08C918F7E8C9333
:100280008C918F7D8C9380818D7F808308950E94D7
:1002900033010E94180108958F938FB78F938BB706
:1002A0008F93EF93FF93E1E2F1E08081806480839C
:1002B000FF91EF918F918BBF8F918FBF8F91189589
:1002C0000F920FB60F921F9211242F932BB72F93DB
:1002D0003F934F936F937F938F939F93AF93BF936E
:1002E000EF93FF938091210186FF1FC0809126012B
:1002F0009091270190930B0280930A02E1E2F1E0D2
:1003000080818F7B8083FF91EF91BF91AF919F910F
:100310008F917F916F914F913F912F912BBF2F9193
:100320001F900F900FBE0F901895209126013091CD
:10033000270180910A0290910B02281B390BA9E03A
:10034000BCE80E94E3010024880F991F001C880F5D
:10035000991F001C892F902D2091040230910502D5
:10036000232BF9F444E6489F9001499F300D112456
:1003700030930702209306028091040290910502B7
:10038000892BA1F481E090E0909305028093040210
:10039000E0E2F1E08081877F8083808180628083DA
:1003A000B2CF9093090280930802E6CF1092050223
:1003B00010920402E0E2F1E080818F7D80838081F1
:1003C00088608083A0CFA29FB001B39FC001A39F8C
:1003D000700D811D1124911DB29F700D811D11247E
:0803E000911D0895F894FFCF70
:00000001FF
