:100000000C9472000C9493000C9493000C94930045
:100010000C9493000C9493000C9493000C94930014
:100020000C9493000C9493000C9493000C94930004
:100030000C9493000C9493000C9493000C949300F4
:100040000C9493000C9493000C9493000C949300E4
:100050000C9493000C9493000C9493000C949300D4
:100060000C9493000C9493000C9493000C949300C4
:100070000C9493000C9493000C9493000C949300B4
:100080000C9493000C9493000C9493000C944F03E5
:100090000C9493000C9493000C9493000C94930094
:1000A0000C9493000C9493000C9493000C94930084
:1000B0000C9493000C943D030C94A9030C949300AE
:1000C0000C9493000C9493000C9495030C9493005F
:1000D0000C9493000C9493000C9493000C94930054
:1000E0000C94930011241FBECFEFD1E2DEBFCDBF31
:1000F00000E00CBF12E0A0E0B2E0ECE0FCE000E0C9
:100100000BBF02C007900D92A032B107D9F722E0D1
:10011000A0E2B2E001C01D92A033B207E1F70E9455
:1001200057010C9404060C940000E1E0F1E080819A
:10013000806280838081806180839D9AE2E0F1E02B
:1001400080818F7E8083A598089528E030E0E2E0EA
:10015000F1E00EC090819F7D9083908190619083AB
:1001600090819F7E9083215031092115310549F0FE
:10017000982F91708595992369F39081906290836F
:10018000ECCF089590E101C0990F8A95EAF7892F85
:100190000E94A5000895CF93DF93D62FC72F0E940A
:1001A000A5008D2F9C2F0E94C200A59AA598DF91D3
:1001B000CF9108950F931F93CF93DF93C82FD92F1B
:1001C00000E010E09E01ADECBCEC0E9424049C0118
:1001D000369527953695279536952795C901880F29
:1001E000991F880F991F820F931F880F991FFE0177
:1001F000E81BF90BEE0FFF1FE050FE4FB8018081A6
:100200000E94CB009E01ADECBCEC0E942404EC01EA
:10021000D695C795D695C795D695C7958FE99FE092
:100220000197F1F700C000000F5F1F4F0430110568
:1002300049F6DF91CF911F910F9108953F98279A2A
:100240002F9A0895379911C02FEF89EF90E0215030
:1002500080409040E1F700C00000379910C0109234
:100260002302109222022F9808952FEF89EF90E039
:10027000215080409040E1F700C00000379B089576
:100280008091220290912302892B49F480912002CF
:10029000909121020196909321028093200281E0A7
:1002A00090E090932302809322022F9AE8CF0E943D
:1002B00090030E940B030E945E01FDCF21C020919C
:1002C0002A0230912B0280912C0290912D02281746
:1002D000390761F120912C0230912D0280912A0280
:1002E00090912B022817390754F120912A0230915E
:1002F0002B0280912C0290912D022817390744F18E
:1003000080912C0290912D02892BC9F680912A02AE
:1003100090912B028536910594F680E090E00E9442
:10032000190380E090E00E941203089582E390E0B8
:100330000E94190382E390E00E941203E1CF85E559
:1003400090E00E94190382E390E00E941203CDCF57
:1003500085E590E00E94120382E390E00E94190379
:10036000CFCFCF92DF92EF92FF920F931F93CF9355
:10037000DF9300D000D0CDB7DEB780912A029091F4
:100380002B028D569F4F9C01990F440B550B2983CF
:100390003A834B835C83CA01B9010E94E2042BEDCE
:1003A0003FE049E450E469837A838B839C836981CD
:1003B0007A818B819C810E94970520E030E84CE394
:1003C00053E469837A838B839C8369817A818B81EF
:1003D0009C810E94380420E030E044EB53E46983C0
:1003E0007A838B839C8369817A818B819C810E9433
:1003F000970523E333E343EB50E469837A838B83EC
:100400009C8369817A818B819C810E943804062FAC
:10041000172F8E839D8380912C0290912D020D9732
:100420009C01990F440B550B29833A834B835C83C2
:10043000CA01B9010E94E2042BED3FE049E450E417
:1004400069837A838B839C8369817A818B819C8188
:100450000E94970520E030E84CE353E469837A83F7
:100460008B839C8369817A818B819C810E94380473
:1004700020E030E044EB53E469837A838B839C83F0
:1004800069817A818B819C810E94970523E333E304
:1004900043EB50E469837A838B839C8369817A81FF
:1004A0008B819C810E943804262F372F482F592F8B
:1004B00009831A838E818B838D818C8369817A81F4
:1004C0008B819C810E943804C62ED72EE82EF92EEF
:1004D0001092270210922602809126029091270204
:1004E0009C0140E050E029833A834B835C83CA013E
:1004F000B9010E94E004262F372F482F592F098376
:100500001A838E818B838D818C8369817A818B8123
:100510009C810E94920518160CF03FC082E390E087
:100520000E94190320E030E048E452E4C982DA82F4
:10053000EB82FC8269817A818B819C810E94970584
:1005400069837A838B839C8369817A818B819C8187
:100550000E94AA04862F972F0E94120380912602E0
:10056000909127029C0140E050E029833A834B831D
:100570005C83CA01B9010E94E004202F312F4E8113
:100580005D8169837A838B839C8369817A818B8186
:100590009C810E94330488230CF280E090E00E944A
:1005A000190380E090E00E9412030F900F900F90CB
:1005B0000F900F900F90DF91CF911F910F91FF90AF
:1005C000EF90DF90CF9008956B9AE1E0F1E08081A9
:1005D000886080837398E2E0F1E08081877F808388
:1005E000089582EC809390008CE18093910081E0EB
:1005F00090E09093990080939800089582EC809306
:10060000A0008CE18093A10081E090E09093A9008C
:100610008093A80008950E94FE020E94F1020E94A9
:10062000E4020895282F392F3093970020939600E5
:100630000895282F392F3093A7002093A6000895FE
:1006400034B323B381E090E002C0880F991F3A953C
:10065000E2F780959095822783BB089590910201DF
:10066000E1E0F1E0808121E030E002C0220F331FA1
:100670009A95E2F78227808308958F938FB78F939F
:100680009F938091260290912702019690932702D2
:10069000809326029F918F918FBF8F9118958F9392
:1006A0008FB78F939F93809124029091250201969A
:1006B00090932502809324029F918F918FBF8F91F9
:1006C00018958BE2809320018AE58093210181E2D5
:1006D000809373008FEF9FEF9093290180932801FF
:1006E00084E190E090932B0180932A0190932D0157
:1006F00080932C0178940895EAE0F1E08081806194
:100700008083808180628083ABE0B1E08C918F7EBA
:100710008C938C918F7D8C9380818D7F80830895C5
:100720000E947C030E94610308958F938FB78F937B
:100730008BB78F93EF93FF93E1E2F1E080818064C8
:100740008083FF91EF918F918BBF8F918FBF8F919E
:1007500018950F920FB60F921F9211242F932BB75B
:100760002F933F936F937F938F939F93AF93BF93F9
:10077000EF93FF938091210186FF1EC08091260197
:100780009091270190932F0280932E02E1E2F1E0F5
:1007900080818F7B8083FF91EF91BF91AF919F917B
:1007A0008F917F916F913F912F912BBF2F911F9030
:1007B0000F900FBE0F9018952091260130912701C0
:1007C00080912E0290912F02281B390BA9E0BCE8E2
:1007D0000E9424040024880F991F001C880F991F71
:1007E000001C892F902D2091280230912902232B63
:1007F000C9F490932B0280932A0280912802909151
:100800002902892BA1F481E090E090932902809342
:100810002802E0E2F1E08081877F8083808180622E
:100820008083B9CF90932D0280932C02E6CF109253
:10083000290210922802E0E2F1E080818F7D80831E
:10084000808188608083A7CFA29FB001B39FC00141
:10085000A39F700D811D1124911DB29F700D811DEC
:100860001124911D08950E941D0508F481E008954A
:100870000E944C040C9458050E94510558F00E94A7
:100880004A0540F029F45F3F29F00C9441055111CD
:100890000C948C050C9447050E94690568F3992314
:1008A000B1F3552391F3951B550BBB27AA2762176C
:1008B0007307840738F09F5F5F4F220F331F441F79
:1008C000AA1FA9F335D00E2E3AF0E0E832D09150AD
:1008D0005040E695001CCAF72BD0FE2F29D0660F9A
:1008E000771F881FBB1F261737074807AB07B0E8DD
:1008F00009F0BB0B802DBF01FF2793585F4F3AF0E3
:100900009E3F510578F00C9441050C948C055F3F97
:10091000E4F3983ED4F3869577956795B795F79568
:100920009F5FC9F7880F911D9695879597F9089550
:10093000E1E0660F771F881FBB1F621773078407EC
:10094000BA0720F0621B730B840BBA0BEE1F88F7FB
:10095000E09508950E94B1046894B1110C948C053F
:1009600008950E94710588F09F5798F0B92F992734
:10097000B751B0F0E1F0660F771F881F991F1AF08A
:10098000BA95C9F714C0B13091F00E948B05B1E05F
:1009900008950C948B05672F782F8827B85F39F05E
:1009A000B93FCCF3869577956795B395D9F73EF423
:1009B00090958095709561957F4F8F4F9F4F0895CB
:1009C000E89409C097FB3EF49095809570956195E9
:1009D0007F4F8F4F9F4F9923A9F0F92F96E9BB279F
:1009E0009395F695879577956795B795F111F8CF1B
:1009F000FAF4BB0F11F460FF1BC06F5F7F4F8F4F86
:100A00009F4F16C0882311F096E911C0772321F07B
:100A10009EE8872F762F05C0662371F096E8862F13
:100A200070E060E02AF09A95660F771F881FDAF76A
:100A3000880F9695879597F90895990F0008550F97
:100A4000AA0BE0E8FEEF16161706E807F907C0F054
:100A500012161306E407F50798F0621B730B840B5C
:100A6000950B39F40A2661F0232B242B252B21F436
:100A700008950A2609F4A140A6958FEF811D811DD6
:100A8000089597F99F6780E870E060E008959FEF10
:100A900080EC089500240A94161617061806090615
:100AA000089500240A9412161306140605060895E4
:100AB000092E0394000C11F4882352F0BB0F40F46C
:100AC000BF2B11F460FF04C06F5F7F4F8F4F9F4FAC
:100AD000089557FD9058440F551F59F05F3F71F02E
:100AE0004795880F97FB991F61F09F3F79F0879595
:100AF0000895121613061406551FF2CF4695F1DF1E
:100B000008C0161617061806991FF1CF86957105AD
:100B1000610508940895E894BB2766277727CB01E1
:100B200097F908950E941D0508F48FEF08950E941B
:100B3000AA050C9458050E944A0538F00E945105F8
:100B400020F0952311F00C9441050C9447051124D5
:100B50000C948C050E94690570F3959FC1F3950F65
:100B600050E0551F629FF001729FBB27F00DB11D31
:100B7000639FAA27F00DB11DAA1F649F6627B00DC1
:100B8000A11D661F829F2227B00DA11D621F739FAA
:100B9000B00DA11D621F839FA00D611D221F749FB8
:100BA0003327A00D611D231F849F600D211D822FFF
:100BB000762F6A2F11249F5750409AF0F1F0882326
:100BC0004AF0EE0FFF1FBB1F661F771F881F915053
:100BD0005040A9F79E3F510580F00C9441050C94BC
:100BE0008C055F3FE4F3983ED4F38695779567953F
:100BF000B795F795E7959F5FC1F7FE2B880F911D7D
:0C0C00009695879597F90895F894FFCF1A
:100C0C0003FF9FFF25FF0DFF99FF49FF41FF1FFFCA
:100C1C0001FF09FF11FFC1FF63FF85FF61FF71FF3A
:00000001FF
