:100000000C9472000C940B090C9493000C949300C4
:100010000C9493000C9493000C9493000C94930014
:100020000C9493000C9493000C9493000C94930004
:100030000C9493000C9493000C9493000C949300F4
:100040000C9493000C9493000C9493000C949300E4
:100050000C9493000C9493000C9493000C949300D4
:100060000C9493000C9493000C9493000C949300C4
:100070000C9493000C9493000C9493000C949300B4
:100080000C9493000C9493000C9493000C94DA0954
:100090000C9493000C9493000C9493000C94930094
:1000A0000C9493000C9493000C9493000C94930084
:1000B0000C9493000C94C8090C94F90A0C949300C6
:1000C0000C9493000C9493000C94E50A0C94930008
:1000D0000C9493000C9493000C9493000C94930054
:1000E0000C94930011241FBECFEFD1E2DEBFCDBF31
:1000F00000E00CBF12E0A0E0B2E0EAE5F7E100E0CA
:100100000BBF02C007900D92A232B107D9F722E0CF
:10011000A2E2B2E001C01D92AA35B207E1F70E9447
:1001200066070C94AB0B0C9400000F9A0B9A0D9A77
:1001300013981598089528E030E008C01798139A8E
:100140001398215031092115310539F0982F9170FC
:100150008595992399F3179AF2CF089520E130E01D
:10016000A90102C0440F551F8A95E2F7CA01809584
:100170000E949B000895CF93DF93D62FC72F0E9434
:100180009B008D2F9C2F0E94AE00159A1598DF9131
:10019000CF9108950F931F93CF93DF93C82FD92F3B
:1001A00000E010E09E01ADECBCEC0E94880B9C01CD
:1001B000369527953695279536952795C901880F49
:1001C000991F880F991F820F931F880F991FFE0197
:1001D000E81BF90BEE0FFF1FEE5FFD4FB8018081AA
:1001E0000E94BB009E01ADECBCEC0E94880BEC01B0
:1001F000D695C795D695C795D695C7958FE99FE0B3
:100200000197F1F700C000000F5F1F4F0430110588
:1002100049F6DF91CF911F910F910895CF93DF930E
:1002200081B18A7A81B982B1856582B980913C02B7
:1002300090913D028230910509F450C30CF04FC0FB
:10024000009709F485C0019709F08CC580912402BC
:10025000909125028130910509F42EC282309105DA
:1002600009F47AC2892B09F4B2C10499EAC28091D7
:10027000320290913302892B09F0E3C28FE39CE9AB
:100280000197F1F700C000000499DBC280913202AF
:1002900090913302892B09F0D4C281E090E09093D1
:1002A000330280933202049BD5C28FE39CE901970D
:1002B000F1F700C00000049BCDC280913202909102
:1002C0003302019709F0C6C2109233021092320233
:1002D00082E090E090933D0280933C02BBC2039782
:1002E00009F040C50699FEC4809128029091290228
:1002F000892B09F0F7C48FE39CE90197F1F700C05F
:1003000000000699EFC48091280290912902892B60
:1003100009F0E8C481E090E09093290280932802DC
:10032000069BE9C48FE39CE90197F1F700C0000048
:10033000069BE1C48091280290912902019709F05F
:10034000DAC410922902109228020E94F509D3C43F
:100350008091260290912702CAE0D0E0BE010E945F
:10036000740BFC01EE0FFF1FEE5FFD4F60E070E0CD
:1003700080810E94BB008FE99FE00197F1F700C0E8
:1003800000008091260290912702BE010E94740B0A
:10039000CB01BE010E94740BFC01EE0FFF1FEE5F4C
:1003A000FD4F61E070E080810E94BB008FE99FE01B
:1003B0000197F1F700C0000080912602909127027A
:1003C00064E670E00E94740BCB01BE010E94740BC6
:1003D000FC01EE0FFF1FEE5FFD4F62E070E08081D9
:1003E0000E94BB008FE99FE00197F1F700C0000079
:1003F00063E070E08CEF0E94BB008FE99FE0019703
:10040000F1F700C0000063E570E080E00E94BB00EF
:100410008FE99FE00197F1F700C00000029938C012
:1004200080913A0290913B02892B91F58FE39CE9F0
:100430000197F1F700C0000002992AC080913A02AA
:1004400090913B02892B21F581E090E090933B0253
:1004500080933A02029B24C08FE39CE90197F1F755
:1004600000C00000029B1CC080913A0290913B02A8
:100470000197B1F480912602909127020196909302
:1004800027028093260210923B0210923A0208C083
:10049000029B06C080913A0290913B020197E1F2E3
:1004A000049935C08091380290913902892B79F5F1
:1004B0008FE39CE90197F1F700C00000049927C081
:1004C0008091380290913902892B09F581E090E002
:1004D0009093390280933802049B21C08FE39CE9FA
:1004E0000197F1F700C00000049B19C08091380209
:1004F00090913902019799F41092390210923802C2
:1005000081E090E090933D0280933C0208C0049B00
:1005100006C080913802909139020197F9F2009952
:1005200021C08091360290913702892BD9F48FE354
:100530009CE90197F1F700C00000009913C0809179
:10054000360290913702892B69F481E090E0909314
:100550003702809336021092270210922602009BE7
:1005600001C409C0009BFEC38091360290913702FE
:10057000019709F0F7C38FE39CE90197F1F700C0F9
:100580000000009BEFC380913602909137020197E3
:1005900009F0E8C363E070E08CEF0E94BB008FE9D4
:1005A0009FE00197F1F700C000006AE070E080E092
:1005B0000E94BB008FE99FE00197F1F700C00000A7
:1005C00081E090E09093370280933602CBC302998A
:1005D00033C08091340290913502892B69F58FE305
:1005E0009CE90197F1F700C00000029925C08091B5
:1005F000340290913502892BF9F481E090E09093D8
:100600002502809324029093350280933402029B4A
:100610001BC08FE39CE90197F1F700C00000029B2B
:1006200013C08091340290913502019769F41092C1
:1006300035021092340208C0029B06C08091340239
:1006400090913502019729F363E070E080E60E9403
:10065000BB008FE99FE00197F1F700C0000062E066
:1006600070E083E00E94BB008FE99FE00197F1F703
:1006700000C0000061E070E08CE10E94BB008FE9E7
:100680009FE00197F1F700C0000060E070E08CE8A7
:100690000E94BB008FE99FE00197F1F700C00000C6
:1006A00063E570E080E00E94BB008FE99FE0019766
:1006B000F1F700C00000D9CD029957C380913402F0
:1006C00090913502892B09F050C38FE39CE9019783
:1006D000F1F700C00000029914C08091340290919B
:1006E0003502892B71F482E090E09093250280938B
:1006F000240281E090E0909335028093340280B12F
:1007000036C3029B34C38091240290912502019745
:1007100009F02DC38091340290913502019709F0C0
:1007200026C38FE39CE90197F1F700C00000029B0C
:100730001EC38091240290912502019709F017C3EE
:100740008091340290913502019709F010C3109204
:100750003502109234020BC3029933C080913402E7
:1007600090913502892B69F58FE39CE90197F1F7A8
:1007700000C00000029925C080913402909135029A
:10078000892BF9F4109225021092240281E090E066
:100790009093350280933402029B1BC08FE39CE947
:1007A0000197F1F700C00000029B13C08091340252
:1007B00090913502019769F410923502109234023B
:1007C00008C0029B06C080913402909135020197C7
:1007D00029F363E070E080E60E94BB008FE99FE0B0
:1007E0000197F1F700C0000062E070E082E00E9433
:1007F000BB008FE99FE00197F1F700C0000061E0C6
:1008000070E08CE10E94BB008FE99FE00197F1F757
:1008100000C0000060E070E08DE80E94BB008FE93E
:100820009FE00197F1F700C0000063E570E080E011
:100830000E94BB008FE99FE00197F1F700C0000024
:1008400014CD049B07C0809132029091330201972E
:1008500009F42BCD009921C0809130029091310292
:10086000892BD9F48FE39CE90197F1F700C00000D0
:10087000009913C08091300290913102892B69F464
:10088000109225021092240281E090E090933102B0
:1008900080933002009B66C209C0009B63C28091B6
:1008A000300290913102019709F05CC28FE39CE91C
:1008B0000197F1F700C00000009B54C28091300204
:1008C00090913102019709F04DC210923D021092B1
:1008D0003C02109231021092300244C280912202F6
:1008E000909123028130910509F4B5C082309105C1
:1008F00009F434C1892BD1F10499A5C180912C024E
:1009000090912D02892B09F09EC18FE39CE90197FC
:10091000F1F700C00000049996C180912C029091DB
:100920002D02892B09F08FC181E090E090932D0278
:1009300080932C02049B90C18FE39CE90197F1F70F
:1009400000C00000049B88C180912C0290912D0270
:10095000019709F081C110922D0210922C0283E0C0
:1009600090E090933D0280933C0276C1029933C09F
:1009700080912E0290912F02892B69F58FE39CE9DB
:100980000197F1F700C00000029925C080912E0266
:1009900090912F02892BF9F481E090E0909323024B
:1009A0008093220290932F0280932E02029B1BC001
:1009B0008FE39CE90197F1F700C00000029B13C090
:1009C00080912E0290912F02019769F410922F02CC
:1009D00010922E0208C0029B06C080912E029091B8
:1009E0002F02019729F363E070E08AED0E94BB00BB
:1009F0008FE99FE00197F1F700C0000062E070E02E
:100A000083E00E94BB008FE99FE00197F1F700C0EF
:100A1000000061E070E08CE10E94BB008FE99FE084
:100A20000197F1F700C0000060E070E08CE80E94E0
:100A3000BB008FE99FE00197F1F700C0000063E57C
:100A400070E080E00E94BB008FE99FE00197F1F722
:100A500000C0000051CF029920C080912E029091D9
:100A60002F02892BD1F48FE39CE90197F1F700C0A5
:100A70000000029912C080912E0290912F02892BC2
:100A800061F482E090E0909323028093220281E05F
:100A900090E090932F0280932E02029B06C08091DB
:100AA0002402909125020197C1F163E070E08AED84
:100AB0000E94BB008FE99FE00197F1F700C00000A2
:100AC00062E070E082E00E94BB008FE99FE0019746
:100AD000F1F700C0000061E070E08DE10E94BB0012
:100AE0008FE99FE00197F1F700C0000060E070E03F
:100AF0008CE80E94BB008FE99FE00197F1F700C0EE
:100B0000000063E570E080E00E94BB008FE99FE099
:100B10000197F1F700C00000EFCE80912E02909176
:100B20002F02019711F68FE39CE90197F1F700C0BE
:100B30000000029BBACF8091240290912502019778
:100B400009F0B3CF80912E0290912F02019709F006
:100B5000ACCF10922F0210922E02A7CF029933C071
:100B600080912E0290912F02892B69F58FE39CE9E9
:100B70000197F1F700C00000029925C080912E0274
:100B800090912F02892BF9F41092230210922202E5
:100B900081E090E090932F0280932E02029B1BC075
:100BA0008FE39CE90197F1F700C00000029B13C09E
:100BB00080912E0290912F02019769F410922F02DA
:100BC00010922E0208C0029B06C080912E029091C6
:100BD0002F02019729F363E070E08AED0E94BB00C9
:100BE0008FE99FE00197F1F700C0000062E070E03C
:100BF00082E00E94BB008FE99FE00197F1F700C0FF
:100C0000000061E070E08CE10E94BB008FE99FE092
:100C10000197F1F700C0000060E070E08DE80E94ED
:100C2000BB008FE99FE00197F1F700C0000063E58A
:100C300070E080E00E94BB008FE99FE00197F1F730
:100C400000C0000059CE049B07C080912C029091F7
:100C50002D02019709F470CE009921C080912A02DB
:100C600090912B02892BD9F48FE39CE90197F1F73E
:100C700000C00000009913C080912A0290912B02BD
:100C8000892B69F4109223021092220281E090E0F5
:100C900090932B0280932A02009B64C009C0009BA2
:100CA00061C080912A0290912B02019709F05AC0ED
:100CB0008FE39CE90197F1F700C00000009B52C050
:100CC00080912A0290912B02019709F04BC081E09C
:100CD00090E090933D0280933C0210922B02109280
:100CE0002A0240C0069B07C08091280290912902E9
:100CF000019709F417CB63E070E08EE80E94BB0017
:100D00008FE99FE00197F1F700C0000062E070E01A
:100D10008CE80E94BB008FE99FE00197F1F700C0CB
:100D2000000061E070E08EE90E94BB008FE99FE067
:100D30000197F1F700C0000060E070E08AE70E94D0
:100D4000BB008FE99FE00197F1F700C0000063E569
:100D500070E080E00E94BB008FE99FE00197F1F70F
:100D600000C00000DF91CF9108950299D3CC63E0D9
:100D700070E080E60E94BB008FE99FE00197F1F7E9
:100D800000C0000062E070E082E00E94BB008FE9DA
:100D90009FE00197F1F700C0000061E070E08DE195
:100DA0000E94BB008FE99FE00197F1F700C00000AF
:100DB00060E070E08CE80E94BB008FE99FE0019743
:100DC000F1F700C0000063E570E080E00E94BB0026
:100DD0008FE99FE00197F1F700C0000046CA0E942A
:100DE000FD0680910002909101020E94CA000895C0
:100DF0003F983D9A459A3E980895379923C02FEF22
:100E000089EF90E0215080409040E1F700C0000061
:100E1000379905C0109241021092400245983699C8
:100E200033C02FEF89EF90E0215080409040E1F7F0
:100E300000C00000369949C010923F0210923E0255
:100E4000459808952FEF89EF90E021508040904021
:100E5000E1F700C00000379BE2CF80914002909103
:100E60004102892B49F48091000290910102019680
:100E7000909301028093000281E090E09093410200
:100E800080934002459ACBCF2FEF89EF90E021501D
:100E900080409040E1F700C00000369B16C0809172
:100EA0003E0290913F02892B49F48091000290917B
:100EB00001020196909301028093000281E090E08C
:100EC00090933F0280933E02459A08950E949500B8
:100ED0000E940E01FDCF8091540290915502209105
:100EE000560230915702820F931F0D969093430242
:100EF0008093420208958EE794E00E9495098EE760
:100F000094E00E948E09089580E090E00E94950987
:100F100080E090E00E948E090895262F372F281731
:100F200039070CF40197821793070CF40196089582
:100F3000CF92DF92EF92FF920F931F93CF93DF93A5
:100F4000C0E0D0E00F2EF3E0CF2EF02DD12C02E048
:100F500010E0EE24E394F12C12C0C130D10509F069
:100F600042C0809156029091570245970CF075C08F
:100F7000809154029091550245970CF06EC00E94EA
:100F8000EF0620910002309101028091440290917D
:100F900045022817390709F055C0209156023091B3
:100FA0005702809154029091550228173907A9F2EF
:100FB000209156023091570280915402909155022F
:100FC0002817390724F52297C9F42091540230914B
:100FD00055028091560290915702281739073CF12B
:100FE000C02FD12FBECF8EE794E00E9495098EE7E7
:100FF00094E00E948E09CE2DDF2DB3CF81E796E0DD
:101000000E9495098FE794E00E948E09DECF20911F
:101010005402309155028091560290915702281740
:1010200039070CF09ECFC330D10509F49ACF81E780
:1010300096E00E948E098FE794E00E949509CC2DDE
:10104000DD2D8FCF0E9484078091000290910102D4
:10105000909345028093440292CF0E948407DF91CF
:10106000CF911F910F91FF90EF90DF90CF90089557
:101070000E94EC0980914A0290914B028430904189
:1010800048F40E947B0780914A0290914B02843081
:101090009041B8F30E94EC090E949C0980914A0299
:1010A00090914B028839984048F40E947B078091C8
:1010B0004A0290914B0288399840B8F30E949C09EB
:1010C0000E94EC0980914A0290914B028C37954125
:1010D00048F40E947B0780914A0290914B028C3722
:1010E0009541B8F30E949C090E94EC0980914A0244
:1010F00090914B028839984048F40E947B07809178
:101100004A0290914B0288399840B8F30E949C099A
:101110000E94EC090E947B07809154029091550235
:10112000409744F00E947B078091540290915502B1
:101130004097C4F70E94840708950E94EC098091AB
:101140004A0290914B028430904148F40E947B0700
:1011500080914A0290914B0284309041B8F30E94F2
:10116000EC090E94AE0980914A0290914B028636AA
:10117000984048F40E947B0780914A0290914B026C
:1011800086369840B8F30E94AE090E94EC0980911F
:101190004A0290914B028C37954148F40E947B079C
:1011A00080914A0290914B028C379541B8F30E948E
:1011B000AE090E94EC0980914A0290914B0286365A
:1011C000984048F40E947B0780914A0290914B021C
:1011D00086369840B8F30E94AE090E94EC090E943E
:1011E0007B0780915402909155024A9744F00E94E7
:1011F0007B0780915402909155024A97C4F70E9450
:10120000840708955098E89AE9E6F0E080818160CB
:101210008083789408951F920F920FB60F92112435
:101220000BB60F922F933F934F935F936F937F93E0
:101230008F939F93AF93BF93EF93FF938091460259
:1012400090914702892B19F581E090E09093470235
:10125000809346020E948407809146029091470243
:101260000197C1F30E94F509FF91EF91BF91AF91F2
:101270009F918F917F916F915F914F913F912F91AE
:101280000F900BBE0F900FBE0F901F9018951092ED
:10129000470210924602E6CF6B9AE1E0F1E08081CE
:1012A000886080839D9A8081806180837398E2E06A
:1012B000F1E08081877F8083A59880818F7E808305
:1012C000089582E8809390008AE180939100E1E79D
:1012D000F0E080818160808381E090E090939900CC
:1012E000809398007894089582E88093A0008AE122
:1012F0008093A100E2E7F0E080818160808381E05B
:1013000090E09093A9008093A800789408950E949B
:1013100074090E9461090E944C090895282F392FF1
:1013200030939700209396000895282F392F3093FB
:10133000A7002093A600089580914E0290914F023D
:10134000892B41F4A59A81E090E090934F0280931D
:101350004E020895A59880E090E0F7CF80914C026E
:1013600090914D02892B61F4E2E0F1E0808180618F
:10137000808381E090E090934D0280934C02089529
:10138000E2E0F1E080818F7E808380E090E0F3CF27
:101390008F938FB78F939F9380914A0290914B02C6
:1013A000019690934B0280934A029F918F918FBF39
:1013B0008F9118958F938FB78F939F938091480249
:1013C00090914902019690934902809348029F911F
:1013D0008F918FBF8F91189510924B0210924A02F5
:1013E00010924902109248020895CF93DF930E9411
:1013F000E00A0E9487090E94F806809150029091AD
:101400005102892BB9F480915402909155020F97A3
:1014100044F40E94980780915402909155020F97CE
:10142000C4F3809150029091510201969093510221
:1014300080935002C0915002D0915102C130D10529
:10144000A9F02297E1F1C0E0D0E0809150029091A4
:101450005102039709F450C08091500290915102BB
:10146000049709F464C0DF91CF910895809124021C
:10147000909125020097A9F0019781F00E949D08A4
:101480008091500290915102019690935102809365
:1014900050020297A1F0C0E0D0E0D7CF0E943808F8
:1014A000EFCF0E94840780915002909151020196E3
:1014B0009093510280935002029789F0C6CF809199
:1014C0005402909155020F97A4F40E9498078091BE
:1014D0005402909155020F97C4F3C0E0D0E0809180
:1014E00050029091510201969093510280935002C4
:1014F000ACCFC0E0D0E0F3CF8091240290912502E0
:10150000009789F0019761F00E949D088091500238
:1015100090915102019690935102809350029CCF7A
:101520000E943808F3CF0E9484072196EFCFCD2B7D
:1015300071F480915402909155020F9744F40E94E7
:10154000980780915402909155020F97C4F38091AF
:101550005002909151020196909351028093500253
:1015600082CF8BE2809320018AE58093210181E282
:10157000809373008FEF9FEF909329018093280150
:1015800084E190E090932B0180932A0190932D01A8
:1015900080932C0178940895EAE0F1E080818061E5
:1015A0008083808180628083ABE0B1E08C918F7E0C
:1015B0008C938C918F7D8C9380818D7F8083089517
:1015C0000E94CC0A0E94B10A08958F938FB78F931F
:1015D0008BB78F93EF93FF93E1E2F1E0808180641A
:1015E0008083FF91EF918F918BBF8F918FBF8F91F0
:1015F00018950F920FB60F921F9211242F932BB7AD
:101600002F933F936F937F938F939F93AF93BF934A
:10161000EF93FF938091210186FF1EC080912601E8
:10162000909127019093590280935802E1E2F1E0F2
:1016300080818F7B8083FF91EF91BF91AF919F91CC
:101640008F917F916F913F912F912BBF2F911F9081
:101650000F900FBE0F901895209126013091270111
:101660008091580290915902281B390BA9E0BCE8DF
:101670000E94880B0024880F991F001C880F991F57
:10168000001C892F902D2091520230915302232B60
:10169000C9F4909355028093540280915202909124
:1016A0005302892BA1F481E090E090935302809340
:1016B0005202E0E2F1E08081877F80838081806256
:1016C0008083B9CF9093570280935602E6CF109251
:1016D000530210925202E0E2F1E080818F7D80831C
:1016E000808188608083A7CF97FB072E16F4009433
:1016F00007D077FD09D00E94970B07FC05D03EF478
:10170000909581959F4F0895709561957F4F0895AD
:10171000A29FB001B39FC001A39F700D811D112432
:10172000911DB29F700D811D1124911D0895AA1B5A
:10173000BB1B51E107C0AA1FBB1FA617B70710F0BC
:10174000A61BB70B881F991F5A95A9F780959095EE
:0A175000BC01CD010895F894FFCF0D
:10175A00FEFFFC006000DA00F2006600B600BE0080
:10176A00E000FE00F600EE003E009C007A009E00BB
:02177A008E00DF
:00000001FF
