:100000000C9472000C9486000C9486000C9486006C
:100010000C9486000C9486000C9486000C94860048
:100020000C9486000C9486000C9486000C94860038
:100030000C9486000C9486000C9486000C94860028
:100040000C9486000C9486000C9486000C94860018
:100050000C9486000C9486000C9486000C94860008
:100060000C9486000C9486000C9486000C948600F8
:100070000C9486000C9486000C9486000C948600E8
:100080000C9486000C9486000C9486000C9451030A
:100090000C9486000C9486000C9486000C948600C8
:1000A0000C9486000C9486000C9486000C948600B8
:1000B0000C9486000C943F030C94AB030C948600C4
:1000C0000C9486000C9486000C9497030C94860084
:1000D0000C9486000C9486000C9486000C94860088
:1000E0000C94860011241FBECFEFD1E2DEBFCDBF3E
:1000F00000E00CBF22E0A0E0B2E001C01D92A431FC
:10010000B207E1F70E94C1000C94B1060C94000004
:100110003F98279A2F9A0895379911C02FEF89EFAA
:1001200090E0215080409040E1F700C000003799F6
:1001300010C010920302109202022F9808952FEF20
:1001400089EF90E0215080409040E1F700C000002E
:10015000379B08958091020290910302892B49F404
:100160008091000290910102019690930102809388
:10017000000281E090E090930302809302022F9AA4
:10018000E8CFFFCFCF93DF9300D00F92CDB7DEB78C
:1001900084E690E00E942C0384E690E00E94250310
:1001A0004FC080910E0290910F02A0911002B09169
:1001B000110289839A83AB83BC8320910A02309118
:1001C0000B0240910C0250910D02BC01CD010E9426
:1001D000E00488230CF06FC080910E0290910F0212
:1001E000A0911002B091110289839A83AB83BC83E2
:1001F00020910A0230910B0240910C0250910D02A5
:10020000BC01CD010E94E50420E030E048EC52E45E
:1002100069837A838B839C8369817A818B819C81BA
:100220000E94440669837A838B839C8369817A81E7
:100230008B819C810E945705862F972F0E942C034B
:1002400080910E0290910F02A0911002B0911102C4
:1002500089839A83AB83BC8320E030E0A901BC0191
:10026000CD010E94E00481119CCF80910A029091FF
:100270000B02A0910C02B0910D0289839A83AB838B
:10028000BC8320E030E048E452E4BC01CD010E9490
:10029000E00488230CF485CF80E090E00E942C03DA
:1002A00080E090E00E9425030F900F900F900F9038
:1002B000DF91CF91089580910A0290910B02A09155
:1002C0000C02B0910D0289839A83AB83BC83209189
:1002D0000E0230910F024091100250911102BC01A8
:1002E000CD010E94E50420E030E048EC52E469834F
:1002F0007A838B839C8369817A818B819C810E9424
:10030000440669837A838B839C8369817A818B819C
:100310009C810E945705862F972F0E94250390CF1E
:10032000CF92DF92EF92FF920F931F93CF93DF93C1
:1003300000D000D0CDB7DEB720910A0230910B0279
:1003400040910C0250910D0229833A834B835C83C8
:1003500020E030E046E053E469817A818B819C8122
:100360000E94740420E030E040EA50E469837A831C
:100370008B839C8369817A818B819C810E94740428
:100380002BED3FE049E450E469837A838B839C83BF
:1003900069817A818B819C810E94440620E030E84B
:1003A0004CE353E469837A838B839C8369817A81EC
:1003B0008B819C810E94E50420E030E044EB53E413
:1003C00069837A838B839C8369817A818B819C8109
:1003D0000E94440623E333E343EB50E469837A83CA
:1003E0008B839C8369817A818B819C810E94E50447
:1003F000062F172F8E839D8380910E0290910F02FE
:10040000A0911002B091110289839A83AB83BC83BF
:1004100020E030E040EA50E4BC01CD010E947304CA
:100420002BED3FE049E450E469837A838B839C831E
:1004300069817A818B819C810E94440620E030E8AA
:100440004CE353E469837A838B839C8369817A814B
:100450008B819C810E94E50420E030E044EB53E472
:1004600069837A838B839C8369817A818B819C8168
:100470000E94440623E333E343EB50E469837A8329
:100480008B839C8369817A818B819C810E94E504A6
:10049000262F372F482F592F09831A839E819B833C
:1004A000AD81AC8369817A818B819C810E94E50456
:1004B000C62ED72EE82EF92E1092070210920602B1
:1004C00080910602909107029C0140E050E0298350
:1004D0003A834B835C83CA01B9010E948D05262FA4
:1004E000372F482F592F09831A838E818B839D8143
:1004F0009C8369817A818B819C810E943F061816BA
:100500000CF03FC084E690E00E942C0320E030E035
:1005100048EC52E4C982DA82EB82FC8269817A81FA
:100520008B819C810E94440669837A838B839C83A0
:1005300069817A818B819C810E945705862F972F34
:100540000E94250380910602909107029C0140E0E1
:1005500050E029833A834B835C83CA01B9010E942E
:100560008D05202F312F4E815D8169837A838B83A6
:100570009C8369817A818B819C810E94E00488231D
:100580000CF280E090E00E942C0380E090E00E945A
:1005900025030F900F900F900F900F900F90DF9109
:1005A000CF911F910F91FF90EF90DF90CF90089522
:1005B0006B9AA1E0B1E08C9188608C9344B323B333
:1005C00081E090E0BC0102C0660F771F4A95E2F718
:1005D000262B23BBE2E0F1E030812C9102C0880F92
:1005E000991F3A95E2F7822B8C9373988081877FCD
:1005F000808380818F7E8083A498089582EC80938D
:1006000090008CE18093910080E28093710081E002
:1006100090E09093990080939800089582EC8093E5
:10062000A0008CE18093A10080E28093720081E0C1
:1006300090E09093A9008093A80008950E940E0373
:100640000E94FE020E94D8020895282F392F30936D
:100650009700209396000895282F392F3093A700F4
:100660002093A600089584B39FEE892784BB089544
:10067000E2E0F1E0808190E18927808308958F9303
:100680008FB78F939F9380910602909107020196F6
:1006900090930702809306029F918F918FBF8F9155
:1006A00018958F938FB78F939F93809104029091A9
:1006B0000502019690930502809304029F918F9109
:1006C0008FBF8F9118958BE2809320018AE58093EC
:1006D000210181E2809373008FEF9FEF90932901B6
:1006E0008093280184E190E090932B0180932A016C
:1006F00090932D0180932C0178940895EAE0F1E025
:10070000808180618083808180628083ABE0B1E002
:100710008C918F7E8C938C918F7D8C9380818D7F3B
:10072000808308950E947E030E94630308958F933F
:100730008FB78F938BB78F93EF93FF93E1E2F1E045
:10074000808180648083FF91EF918F918BBF8F9127
:100750008FBF8F9118951F920F920FB60F92112491
:100760000BB60F922F933F934F935F936F937F93AB
:100770008F939F93AF93BF93EF93FF93CF93DF93A9
:1007800000D00F92CDB7DEB78091210186FF26C041
:100790008091260190912701909313028093120279
:1007A000E1E2F1E080818F7B80830F900F900F90CA
:1007B0000F90DF91CF91FF91EF91BF91AF919F91FA
:1007C0008F917F916F915F914F913F912F910F90FA
:1007D0000BBE0F900FBE0F901F9018952091260111
:1007E000309127018091120290911302281B390B3E
:1007F000A9E0BCE80E9464040024880F991F001C33
:10080000880F991F001C892F902D2091080230918C
:100810000902232B99F544E6489F9001499F300D2A
:100820001124C901330FAA0BBB0B89839A83AB83B5
:10083000BC83BC01CD010E948F05462F572F682F26
:10084000792F40930A0250930B0260930C0270932D
:100850000D028091080290910902892B41F581E0F7
:1008600090E09093090280930802E0E2F1E0808139
:10087000877F808380818062808397CF9C01990FDE
:10088000440B550B29833A834B835C83CA01B9011E
:100890000E948F05462F572F682F792F40930E0205
:1008A00050930F026093100270931102D2CF1092F6
:1008B000090210920802E0E2F1E080818F7D8083DE
:1008C00080818860808371CFA29FB001B39FC001F7
:1008D000A39F700D811D1124911DB29F700D811D6C
:1008E0001124911D08955058BB27AA270E948B04FC
:1008F0000C9405060E94F70538F00E94FE0520F0D2
:1009000039F49F3F19F426F40C94F4050EF4E095A5
:10091000E7FB0C94EE05E92F0E94160658F3BA1770
:10092000620773078407950720F079F4A6F50C9405
:1009300038060EF4E0950B2EBA2FA02D0B01B9014D
:1009400090010C01CA01A0011124FF27591B99F045
:10095000593F50F4503E68F11A16F040A22F232F51
:10096000342F4427585FF3CF469537952795A795A1
:10097000F0405395C9F77EF41F16BA0B620B730B48
:10098000840BBAF09150A1F0FF0FBB1F661F771FB9
:10099000881FC2F70EC0BA0F621F731F841F48F46E
:1009A000879577956795B795F7959E3F08F0B0CFF7
:1009B0009395880F08F09927EE0F979587950895DE
:1009C0000E94CA0508F481E008950E94F9040C947D
:1009D00005060E94FE0558F00E94F70540F029F434
:1009E0005F3F29F00C94EE0551110C9439060C94DC
:1009F000F4050E94160668F39923B1F3552391F389
:100A0000951B550BBB27AA2762177307840738F07D
:100A10009F5F5F4F220F331F441FAA1FA9F335D0DA
:100A20000E2E3AF0E0E832D091505040E695001C8E
:100A3000CAF72BD0FE2F29D0660F771F881FBB1F48
:100A4000261737074807AB07B0E809F0BB0B802D26
:100A5000BF01FF2793585F4F3AF09E3F510578F052
:100A60000C94EE050C9439065F3FE4F3983ED4F302
:100A7000869577956795B795F7959F5FC9F7880F26
:100A8000911D9695879597F90895E1E0660F771F78
:100A9000881FBB1F621773078407BA0720F0621B09
:100AA000730B840BBA0BEE1F88F7E09508950E9434
:100AB0005E056894B1110C94390608950E941E06D3
:100AC00088F09F5798F0B92F9927B751B0F0E1F00F
:100AD000660F771F881F991F1AF0BA95C9F714C0BF
:100AE000B13091F00E943806B1E008950C943806B8
:100AF000672F782F8827B85F39F0B93FCCF38695F8
:100B000077956795B395D9F73EF490958095709554
:100B100061957F4F8F4F9F4F0895E89409C097FBD1
:100B20003EF490958095709561957F4F8F4F9F4FC4
:100B30009923A9F0F92F96E9BB279395F695879508
:100B400077956795B795F111F8CFFAF4BB0F11F4CB
:100B500060FF1BC06F5F7F4F8F4F9F4F16C0882372
:100B600011F096E911C0772321F09EE8872F762FA8
:100B700005C0662371F096E8862F70E060E02AF0E9
:100B80009A95660F771F881FDAF7880F96958795D5
:100B900097F90895990F0008550FAA0BE0E8FEEFAA
:100BA00016161706E807F907C0F012161306E40731
:100BB000F50798F0621B730B840B950B39F40A262A
:100BC00061F0232B242B252B21F408950A2609F408
:100BD000A140A6958FEF811D811D089597F99F670C
:100BE00080E870E060E008959FEF80EC08950024B5
:100BF0000A941616170618060906089500240A9482
:100C000012161306140605060895092E0394000C07
:100C100011F4882352F0BB0F40F4BF2B11F460FF96
:100C200004C06F5F7F4F8F4F9F4F089557FD9058BF
:100C3000440F551F59F05F3F71F04795880F97FBA0
:100C4000991F61F09F3F79F087950895121613065A
:100C50001406551FF2CF4695F1DF08C01616170689
:100C60001806991FF1CF86957105610508940895BE
:100C7000E894BB2766277727CB0197F908950E9450
:100C8000CA0508F48FEF08950E9457060C940506D4
:100C90000E94F70538F00E94FE0520F0952311F020
:100CA0000C94EE050C94F40511240C9439060E9462
:100CB000160670F3959FC1F3950F50E0551F629F84
:100CC000F001729FBB27F00DB11D639FAA27F00DA5
:100CD000B11DAA1F649F6627B00DA11D661F829FCC
:100CE0002227B00DA11D621F739FB00DA11D621FB1
:100CF000839FA00D611D221F749F3327A00D611DCE
:100D0000231F849F600D211D822F762F6A2F1124AF
:100D10009F5750409AF0F1F088234AF0EE0FFF1FE2
:100D2000BB1F661F771F881F91505040A9F79E3F39
:100D3000510580F00C94EE050C9439065F3FE4F306
:100D4000983ED4F3869577956795B795F795E7958F
:100D50009F5FC1F7FE2B880F911D9695879597F998
:060D60000895F894FFCF96
:00000001FF
